:020000041000EA
:4000000000400208310100100D000000950100100000000000000000000000000000000000000000000000000000000091010010000000000000000091010010910100109B
:4000400091010010AD040010910100109101001091010010910100109101001091010010910100109101001091010010910100109101001091010010910100109101001041
:400080009101001091010010910100109101001091010010910100109101001091010010910100109101001091010010910100109101001091010010910100109101001020
:4000C00010B5064C2378002B07D1054B002B02D0044800E000BF0123237010BD5404000800000000B42F0010084B10B5002B03D00749084800E000BF07480368002B00D131
:4001000010BD064B002BFBD09847F9E70000000058040008B42F0010EC000008000000007047EFF3108072B6704780F310887047FFF7F6FF72B6104C104DAC4209DA2168B1
:400140006268A368043B02DBC858D050FAE70C34F3E70B490B4A0020521A02DD043A8850FCDC094809490860BFF34F8F00F004F900F01EF8FEE70000B82F0010D02F0010D8
:40018000540400084C0600080000000808ED00E0FEE7FEE700B504207146084202D0EFF3098001E0EFF30880043001F0FDFDFEE710B562B6034800F053F9002001F032FDD4
:4001C000FBE7C0460000081070B56249E0239B00CB580F2213401A00D0329200525807210A40032A05D0042A06D0002A12D15A4814E05A4A106811E01A00C032920055492E
:4002000052581F210A40112A06D0132A04D0FA20C00103E0524801E080200002002B36D14C4BB222D2009A5801211140B125ED005A59120F032422405B591B0F1C4207D086
:40024000444C63591B0F03242340012B02D102E0012300E00023002B01D0002901D1032A4BD13C4BB022D2009D58AD03AD0B3D495958C904C90C9C58240E01231C400134FA
:4002800001F050FE6843210001F04CFE35E0012B33D1304BC822D2009A5801251540C024E4001A59120F03210A401B591B0F194207D028490B591B0F03210B40012B02D108
:4002C00002E0012300E00023002B01D0002D01D1032A12D11F4DC022D200AB587F210B40A958090A1F263140AC58240C3440584301F018FE210001F015FEE0239B00154AA6
:40030000D3581B0903221340D840144C6060164B1D692D0AFC32154001351969090E013101F000FEA060290001F0FCFD0500E06020610E4BC0180E4901F0F4FD20750D4BFD
:40034000E818FA21890001F0EDFDA061C003E06170BDC0460000264000127A00C000000800366E0184050000000021403F420F0040420F00E703000010B5234BB021C900A5
:400380005A58520052085A50E02080001A583024A2431A50802252045A501C491C4A9950A021890104329950FF211A4A995081315A58920092088020C00502435A505A58DD
:4003C0008020000602435A505A58012082435A5000F0D8F9FFF7F8FE00F070F800F078F801F0DAF8B0235B055B78002B04D0B0235B055B78DBB200E02123212B03D1064BD1
:400400000022DA605A6010BD0000264001000200840500008C050000E00023408023024AD3580320184070470000214010B5FFF778FE084980228C58074B2340074C2343F0
:400440008B508823034AD358DB06FAD5FFF76DFE10BDC04600002140FCFF00000100FA0570B50500FFF75DFE0400FFF7D7FF032801D1FFF7DBFF0A4AB0239B00D55080219E
:400480005058084B03400848034353508823044AD358DB06FAD52000FFF747FE70BDC04600002140FCFF00000300FA0510B5024800F044FE10BDC0467004000810B5034A63
:4004C00060328021042000F029FC10BD7005000810B501F0D2FC0400044800F0DFFC044800F046FD200001F0CCFC10BD70040008C0200010FEE7C046F0B50025002711E049
:40050000BB00C658F3B2FF22964308E06A008A181478A419527822700135013BDBB2002BF4D10137022FEBD9F0BDC046014A024B1A60704701001180000E1F4130B587B0F6
:400540006F4A116808230B4313606E4C03E0012001F0F0FB013C6A4B1B695B0701D4002CF5D1002C01D1684B00E00023002B02D00520FFF7BFFF654BA021C9005A5803208B
:4005800082435A50624990240A59624802400A510A691202120A8024640422430A610A6910400861E022920099580F208143995099582130814399509958802000060143ED
:4005C00099500021012000F01BFE0021022000F017FE0021032000F013FE0021042000F00FFE0021002000F00BFE01A84A4903000A0032CA32C312CA12C300F029FE002894
:4006000002D00420FFF776FF4049444A8B588020000603438B50424800F0D4FE002802D00420FFF767FF394C3E4BE1583E4A0A40E250E1583D4A0A40E250E25880252D0639
:400640002A43E250043BE158394A0A40E250E158384A0A40802189010A43E250E258802109020A43E250264A1168334B0B40802149000B431360002001F03AFC2F4AA35838
:400680001D43A550A3580125AB432B43A3506421002001F0A1FB2A4B00212A4A9950802000011A581B490A408C24A40122431A508022D20024489850985824481D5024486E
:4006C0001C582140F824E40121431950214999509958C52109015D501F495D5040201F495850902000011C581D4921401D4C214319501D4999509A581C4A9D5007B030BD97
:400700000000274020A1070002004A000000264000002140FF00FFFFF4200010087F0000400D030004050000FEFCFFFFFFFF00FFFFF0FFFFFF8FFFFFFFFCFFFF0C050000FE
:4007400000000140140C000000FF00804C0C00000408000001FF0080540C0000580C0000FF0000FF000F270040FF0080240C000010B50A00002101F06AFC10BD10B501F004
:400780005DFC10BD70B58EB09621002001F024FB01F0FAFA002814D101F0E6FAC0235B00854AD358DB0705D41100844A8B585B005B088B508049814A8B5880200006034355
:4007C0008B50012001F066F97D4A516C7D4B0B40E82189010B435364536C1B0AFF2213403A2B07D1764A516C774B0B40E82189010B435364002300227449754801F044FBD8
:40080000002300227349744801F03EFB002300227249734801F038FB0023002271498A20800001F031FB002300226F496F4801F02BFB002300226E496E4801F025FB0023FB
:4008400000226D496D4801F01FFB002300226C496C4801F019FB002300226B496B4801F013FB002300226A496A4801F00DFB002300226949694801F007FB0023002268494E
:400880008920800001F000FB3422002101A801F0DEFB644C01AA0021200000F087FE3422002101A801F0D3FB01AA0121200000F07DFEFFF743FE5C4A5C4B1A6000240CE0E3
:4008C0006200121953005A4AD318198B9A8AD88A00041043FFF74CFF01340B2CF0D900240AE0620012199300514AD3185A6E196ED86DFFF743FF0134112CF2D94D4D280013
:4009000064304D493431FFF7F7FD4C4A4C4B1A604C4A4D4B1A604D4A4D4B1A604D4A1368832149000B43136001AC22002B00703323CB23C223CB23C223CB23C221003948CE
:4009400000F09EFF444D22002B00143343CB43C243CB43C243CB43C22100404800F090FF22002B00383343CB43C243CB43C243CB43C221003A4800F083FF22002B005C3382
:4009800043CB43C243CB43C243CB43C22100354800F076FF22002B00143323CB23C223CB23C223CB23C221002F4800F069FFFFF7BDFD0EB070BDC046000026400C050000E6
:4009C00000002740FF00FFFFFFC5FFDF0E0E0040060E00000D020040290200000D0E0040070E0000010200400C0E0040080E00000C020040270200000B0E0040010E000005
:400A00000B020040260200000A0E0040030E00000A02004025020000090E0040040E000009020040000032400300FA05F0012140F420001074220010F4210010D0000C0020
:400A400020013840E0000F006001384030000B00A001384000793440F42200108000324080023240000332408005324010B583089A00801AC000FF228240D44381400A4013
:400A8000072B32D89B001949CB589F46184B196A0C4022431A6228E0154B596A0C4022435A6222E0124B996A0C4022439A621CE00F4BD96A0C402243DA6216E00C4B196BE4
:400AC0000C4022431A6310E0094B596B0C4022435A630AE0064B996B0C4022439A6304E0034BD96B0C402243DA6310BDA42C00100000214083089A00801AC100FF228A4088
:400B0000072B2BD89B001748C3589F46164B186A1040C84023E0144B586A1040C8401EE0114B986A1040C84019E00F4BD86A1040C84014E00C4B186B1040C8400FE00A4BC4
:400B4000586B1040C8400AE0074B986B1040C84005E0054BD86B1040C84000E00020C0B27047C046C42C00100000214070B504000D000B4B9A680B4B9A420BD1002903D1CA
:400B8000FC21094801F0E2F81034064BA400E058E55003E01034A400044BE05870BDC04600ED00E000000008E42C001000000010F0B583B0041E019150D04368032B03D96B
:400BC0003621294801F0C2F80023E05E002802DBA178FFF74BFF0023E25E6368002A12DB9008224EC0308000875903210A40D200FF25290091408F4399012B000B40934013
:400C00003B43835117E092B20F21114008398908063189001648844661444E6803200240D200FF2738009040864398013B000340934033434B600E4B9A680E4B9A420FD1E8
:400C4000019B002B03D14521074801F07FF80023E05E0199FFF78AFF002002E0064800E0002003B0F0BDC046E42C001000E100E000ED00E0000000080100560070B5040056
:400C80000D000369002B0ADA0B0C03D00549064801F05CF82D042D0C6560002000E0034870BDC046A7020000282D001001008A0070B505000C000368002B01DA002300E0F1
:400CC000084B002B0BD1EA60230C03D00649074801F03CF82404240CAC60002000E0014870BDC04601008A008E020000282D001070B505000C1E03D19921064801F026F8EC
:400D00002B69002B03DAEB682360002000E0024870BDC046682D001001008A00F8B504000E0015000F283FD8002A10D100290ED10F2804D99E21FF31214801F007F864019E
:400D4000204B9C466444204B1C60002037E0002D2CD0002E2CD0F3062CD10F2C04D99E21FF31174800F0F2FF6401164B9C466444154F3C607E60BD60F2080021280001F051
:400D800066F900212000FFF779FF3A0001CA0021FFF78EFF00280FD10B4B18680021FFF76DFF00280AD10AE0084808E0074806E0064804E0054802E0054800E00448F8BD32
:400DC000A82D0010000023400006000803018A0001018A00F0B583B00D001C4B1B68DC68236883422DD947097B01C01A012383401E00002903D101F040F8019001E00023B4
:400E00000193124B18680368002B01DA002300E00F4B002B0ED16368BF00DF193B68334203D0B3433B60002400E00A4C0021FFF725FF00E0084C002D04D1019801F021F8FD
:400E400000E0064C200003B0F0BDC0460006000801008A00020188000301880004018A000A4B1B68DA68136883420BD943095901401A0121814052689B009B580B4203D0F2
:400E8000034802E0034800E003487047000600080101880004018A0000018800034B1B68002B01D1014B18607047C0460C060008F0B5474680B404000F0090461E00072823
:400EC00003D9B421254800F041FF254B1B682C2060431C18FF22150035402560330A13406360330CA3600F2D04D99E21FF311D4800F02CFF6B011C4A94466344236165689D
:400F00000F2D04D9DC214900164800F01FFF6D01164B9C4665446561A668330C04D0EB214900104800F012FF330C04D0D821FF310C4800F00BFF3604330C1E43AE604346FC
:400F4000E36127620023A361069B002B02D000229B5EA38104BC9046F0BDC046E82D00100C060008A82D00100000234000102340F0B58FB0041E03D150212E4800F0E6FEC8
:400F80006368032B03D952212A4800F0DFFEE36A002B03D15621274800F0D8FEE368072B03D95721234800F0D1FE236A072B03D95821204800F0CAFE236B002B03D159217C
:400FC0001C4800F0C3FE07AA1300210061C961C321C921C302AD290023001433C1CBC1C141CB41C10821535E0CAE3380079B1933B370089B0D930B9B0A980096A26AE16AAD
:40100000FFF756FF2B69E868002200920021FFF74FFF216B3000FFF7CBFD0023F25E002A05DB1F231A401E3B9340034A13600FB0F0BDC046E82D001000E100E0F8B50500DF
:401040000F0016001C00002A03D1FC21244800F07DFE072D03D9FD21214800F077FE072F03D9FE211E4800F071FE1E4B1B682C2128004843181879435918012213004D6817
:40108000AB401B044568AA4015000269002A20D08F69002F1FD11268002A01DA002200E0114A002A19D132681204120C134333600369DE6001238B614C6204692B0C03D058
:4010C0000A490B4800F042FE2A04120CA260002004E0084802E0084800E00748F8BDC046E82D00100C06000801008A008E020000A82D001004028A0007028A0070B50500D0
:401100000C001600072804D96021FF31084800F01DFE084B1B682C2068431818C369B34204D9036AB6009C51002000E0024870BDE82D00100C0600080A028A0070B582B0C7
:40114000040000230193002804D1D92149002B4800F0FCFD2369002B04D1B421FF31274800F0F4FD6369002B04D1DA214900234800F0ECFD236A002B04D1B621FF311F48E8
:4011800000F0E4FD6269D5682B0C1FD01B041360136820690369002B18DA01A9FFF7A8FD00280ED1019803681E0CFF221340E269934207D29B00226AD358002B02D09847FC
:4011C00000E0002631002069FFF758FD2D042D0C0FD063691D601B68636A002B03D098470023636203E0A36A002B00D098470023A36163691B6802B070BDC046E82D0010F3
:4012000004281DD8042904D94B1EFF3B9BB2132B18D8FF290CD91F2319400B4A0300C0339B009950D03080000423835000200AE007231940D0308000034BC150002002E006
:40124000024800E0014870470000264001004A0070B5041E04D1EF2149004C4800F076FDB023DB004A4AD358002B01DB002500E0484D002D00D086E0474B22689A4204D9E1
:40128000EE21FF31414800F061FD23689B03990BE3791B068022520413400B43B022D2003B498B50A2883D4B9A4204D9FA214900364800F04BFD2289394B9A4204D9F621AE
:4012C000FF31324800F042FDA388DB04D90C23891B04344A13400B43334A2D498B50A37A0F2B04D9FC21FF31284800F02FFDE37A0F2B04D9FE214900244800F027FDA289DA
:40130000264B9A4204D9FE21FF31204800F01EFDA37A0F211940E27A1201FF2313400B43A289120221490A401343A27B1207C02189050A401343B122D20015498B50A37961
:40134000072B03D91A49114800F000FD228A144B9A4203D917490D4800F0F8FC0C4816494658164B1E40A3791B02E022D2001340334343504658124B1E40238A1B04094A69
:40138000134033434350280070BDC046282E00100000264003004A00FFFF0300FF1F0000FF0100000000FF018405000000FF1F0005020000060200008C050000FFF8FFFF02
:4013C000FFFF00FE70B505002D492E4A8B588020000603438B502C0003E0012000F0AAFC013CB223DB00264AD3585B0701D4002CF3D12349B122D2008858234B0340802078
:40140000800503438B50002D02D00ED0002C0CD01B49B022D2008B588020000603438B5003E0012000F086FC013CB223DB00144AD358DB0701D4002CF3D1002D0ED0002CA5
:401440000CD10F4AB021C90053585B005B0853500C4953585B005B0853500BE0084B0221B222D2009950B121C9005A58C020800502435A50002C01D1044800E0002070BD27
:40148000000026408C050000FFFFFFCF02004A00214B984230D00ED8402831D004D800281FD010282AD031E080282BD080235B00984229D02AE0194B984229D007D8A023FB
:4014C0001B0698420DD0164B984212D01EE0154B98420AD0144B984209D0144B984215D101E0002016E0124814E0124812E0124810E0A020C0030DE007480BE00F4809E0EF
:401500000F4807E00F4805E0034803E00E4801E0A420C0037047C04606005200010000F0090000A0040000F0050000F0030000F0010052000200520003005200010050006D
:401540000200500005005200FF00520010B50C4B1B69002B11DB0B4B1868FFF799FF0121094B0A4AD150084B084AD358002BFAD1074BD358002BF6D100E0064810BDC04635
:4015800000002340100600080C040000000025408C0400000200500010B5022202490020FFF7ACFD10BDC04635010008F8B506000D001400002800D142E1002A00D141E142
:4015C000072903D93921A04800F0C0FB2368012B03D93A219C4800F0B9FB0F2362689A4303D03B21984800F0B1FB237A1F22934303D03C21944800F0A9FBE368032B03D94F
:401600003D21914800F0A2FB2369012B03D93E218D4800F09BFB6369012B03D93F218A4800F094FBA369012B03D94021864800F08DFBE369032B03D94121834800F086FB64
:40164000236A012B03D942217F4800F07FFB636A012B03D943217C4800F078FBA36A012B03D94421784800F071FBE36A032B03D94521754800F06AFB236B072B03D9462179
:40168000714800F063FB2768072D03D96F49704800F05CFB012F04D9BA2189006C4800F055FB002F03D10123AB40736002E00123AB40B3606768072D04D9E4218900644865
:4016C00000F044FB0F233A009A4303D06149604800F03CFBAA00B36A0F210800904083430F4097401F43B762277A072D03D95A49574800F02BFB1F233A009A4303D057491B
:40170000534800F023FB564BF318DB09554A944663441B01032D0BD81A68E8001F2181408A4311001F223A4082400A431A600BE0291F5A68C9001F208840824310001F22B9
:401740003A408A4002435A60E768082D03D946493F4800F0FBFA032F03D944493C4800F0F5FA6A00736A03210800904083430F4097401F4377622769082D03D93C493448C1
:4017800000F0E4FA012F04D9CA21C900304800F0DDFAB36901221100A9408B431740AF401F43B7616769072D03D93249284800F0CDFA012F03D93049254800F0C7FAF26A13
:4017C00001231900A9408C468A431F40AF401743F7626F00103703210800B84062461043326B8243A0691840A8400243E0690140B9400A433263706BFF2294469043276ABF
:401800001F40636A5A00022313403B43A26A9100042739400B431F00E36AD900182319403B000B43226B520161460A401343AD00FE2292001540AB4003437363002002E057
:401840000E4800E00D48F8BDB02E0010E7020000F02E00109103000045020000460200000000CEBF00100304D4060000D50600004F060000D2030000D303000001005A004C
:4018800070B505000C00002848D0002948D0FF230A689A4303D08D21224800F057FAFF2322699A4303D08E211E4800F04FFAA3685B0D03D08F211B4800F048FA63685B0A6E
:4018C00003D09021174800F041FAE3695B0F03D09121144800F03AFA236A5B0F03D09221104800F033FA104BEB18DB090F4A944663441B0122682A60E268AA622269EA62B4
:4019000062692A63A2686A626268AA61A2696A63E2691A60226A5A60002002E0044800E0034870BDB02E00100000CEBF0010030401005A00034A9369802149040B439361B5
:401940007047C04600F02540024A9169024B0B409361704700F02540FFFFFFFE0D4BF222D2019A580260F022D2019A5842600A4A9A588260094A9A58C260094A9A58026139
:40198000084A9A584261084A9A588261074A9B58C36170470000344004780000087800000C7800001078000014780000187800000D4BF022D201416899500C4A816899506B
:4019C0000B4AC16899500B4A016999500A4A416999500A4A81699950094AC16999500168E83299507047C0460000344004780000087800000C780000107800001478000033
:401A00001878000010B5074A074813580F24A34302210B43135004381358A3431943115010BDC0460000214004F0000010B5074A074813580F24A34303210B4313500438ED
:401A40001358A3431943115010BDC0460000214004F000000449054A8858054B0340C020C00103438B5070470000214004F00000FF8FFFFF0449054A8858054B0340802018
:401A8000C00103438B5070470000214004F00000FF8FFFFF70B50500012803D92A492B4800F054F900F0E9F90400294B294AD3581F221340E822D200B02149058A5CD31A10
:401AC0005A1E9341DBB29D4239D0002D14D1FFF731FFFFF797FF1F481D4943581F229343143A13434350FFF7B5FFE823DB00B0225205D35CDAB211E01648154943581F22AE
:401B00009343143A13434350092000F013F9FFF7B1FF114BB0225205D35CDAB20D4E0C4831581F23994313400B433350012D06D1092000F0FFF8FFF779FFFFF705FF200076
:401B400000F09FF970BDC046ED060000302F00101CFF0000000026404107000070B584B005000E00042803D929492A4800F0EEF8731EDBB2012B07D9042E05D0082E03D017
:401B80002549244800F0E2F8042E01D0012E1DD1224B5C68002013E023799D420FD1A368002B01D01E420AD1E36801A85A6842609B688360067023689847184B9C60646936
:401BC000002C23D0164B9842E6D11FE0134B9C68022E02D1002C00D02469002011E023799D420DD1A368002B01D01E4208D1E36801A85A6842609B6883600670236898471F
:401C00002469002C02D0064B9842E8D104B070BD24080000302F00102508000020060008FF00420070B50500012804D9F221FF31384800F08BF8384B1B68002B05D001218F
:401C40000120FFF78BFF040000E00024002C59D100F013F90600304B1B68002B03D004210120FFF77BFFE0232C4AD358DB0603D529480C30FFF772FEB0235B055B78002B10
:401C800004D0B0235B055B78DBB200E02123212B03D1280000F004FA1FE02149214BCB581F221340E822D200B0204005825CD31A5A1E9341DBB20A68120207D4012B05D1DF
:401CC000194BC158194B164AD15003E00021174B134AD150280000F0EBF9E0230F4AD358DB0603D50C480C30FFF762FE300000F0C8F8094B1B68002B09D008210120FFF781
:401D00002DFF04E002210120FFF728FF084C200070BDC046302F00102006000800000140000026401CFF000010180000307F0000FF00420010B5034B1B78584300F094F857
:401D400010BDC046D400000801BEFEE770B50D00044C18220100200000F081F9A5610020FFF7F2FF18040008054B802212069A649B6C002B01DB002000E002487047C0467B
:401D80000000274003004600054B8022120198585B68FF221A4202D08023DB021843704700002640FEE7C04610B50A4B0268DA6142681A6282685A62C2689A620269DA6231
:401DC00042691A6382695A63C2699A63FFF7EAFF10BDC04618040008F0B5002801D0192200E064228A42924152421C4BE8256D005C590327BC433A4014435C515C59184E4B
:401E000034405C51D03D5C59BC4322435A515A5916405E51002805D010290DD921290DD8012014E01D290BD93A290BD957290BD978290BD803200AE0002008E0022006E022
:401E4000002004E0012002E0022000E00420054A13680F218B4303431360F0BD00002140FFFCFFFF000025400230800803D001300238FCD1C046C0467047EFF3108072B626
:401E8000704780F310887047F8B506000C0015001F00012B03D936211248FFF757FF32006240F0231B01134019D1220A0F210A40D20170310C401419A4000B4A9446644463
:401EC000FF221640002D01D00133FF3333437F028026B60037403B432360002000E00348F8BDC046702F0010002001400100CE00042805D1094A116804230B4313600CE0B5
:401F00000006C0239B04184090239B00044AD050024A136804218B431360704710E000E000002140002243088B4274D303098B425FD3030A8B4244D3030B8B4228D3030C8E
:401F40008B420DD3FF22090212BA030C8B4202D31212090265D0030B8B4219D300E0090AC30B8B4201D3CB03C01A5241830B8B4201D38B03C01A5241430B8B4201D34B03DC
:401F8000C01A5241030B8B4201D30B03C01A5241C30A8B4201D3CB02C01A5241830A8B4201D38B02C01A5241430A8B4201D34B02C01A5241030A8B4201D30B02C01A5241EA
:401FC000CDD2C3098B4201D3CB01C01A524183098B4201D38B01C01A524143098B4201D34B01C01A524103098B4201D30B01C01A5241C3088B4201D3CB00C01A524183087B
:402000008B4201D38B00C01A524143088B4201D34B00C01A5241411A00D20146524110467047FFE701B5002000F006F802BDC0460029F7D076E770477047C046002310B537
:402040009A4203D0CC5CC4540133F9E710BD03008218934202D019700133FAE77047030030B5002A0DD00C7801335D1E013A2C700131002CF5D19A189A4202D01C700133BA
:40208000FAE730BDF8B5C046F8BC08BC9E467047F8B5C046F8BC08BC9E4670470000000001B40248844601BC604700BF4102000801B40248844601BC604700BF1503000883
:4020C0000300000001000000010000000000000005036000040000000100000000000000010000000604600008000000E0050008AD040010F4010000140004010A00090527
:402100000800000063010000002034407400802034407400002234407400802234407400002434407400802434407400002634407400802634407400002834407400802823
:4021400034407400002A34407400802A3440740000213440742300109000000000233440042400109000000000253440942400109000000000273440242500109000000033
:4021800000293440B425001090000000002B3440442600109000000000603440D42600107C00000080603440502700107C00000000613440CC2700107C0000008061344006
:4021C000482800107C00000000623440C42800107C00000080623440402900107C00000000633440BC2900107C00000080633440382A00107C00000000643440B42A0010F7
:402200007C00000080643440302B00107C00000000653440AC2B00107C00000080653440282C00107C000000002002100402060108010A020B020C100E2010021205142066
:40224000161018201A101B011C021E093008310132043403350236303AA05C045D0463018010822084028601870288028A0590019202970198209A109C029E09A020A2104B
:40228000A820AA10B003B208B302B404B630B701BA82DC04DD04E301830188028A018C018E06901092209401960298209A109C209E10A001A20AAC20AE10AF02B030B20420
:4022C000B403B501B608B702BA22DC04DD04E3010001140118010000382634401C283440037834400800000000000000000000000060000000000000000000000000000069
:4023000000000000000000000200000000000000000000006000000000000000000000000000000000000000000000000200000000000000000000006888880800000000B9
:4023400000000000000000000012000000000000000000000000000000000000000000BA0000000000000000000000000000000000001D1D00000000000000000000000057
:40238000FFFFFFFFFFFFFFFFFFFFFFFFFFFFFFFFFFFFFFFFFF000000FFFFFFFFFFFFFFFFFFFFFFFFFFFFFFFFFFFFFFFFFF0000000000000000000000000000000000000047
:4023C0000000000000000000FFFFFFFFFFFFFFFFFFFFFFFF1111111111111111111111111111111111111111111111111111111111111111111111111111111111111111FD
:4024000011111111000000000000000000000000FFFFFFFFFFFFFFFFFFFFFFFFFFFFFFFFFFFFFFFFFF000000FFFFFFFFFFFFFFFFFFFFFFFFFFFFFFFFFFFFFFFFFF00000082
:40244000000000000000000000000000000000000000000700000000FFFFFFFFFFFFFFFFFFFFFFFF1111111111111111111111111111111111111111111111111111111185
:402480001111111111111111111111111111111111111101000000000000000000000000FFFFFFFFFFFFFFFFFFFFFFFFFFFFFFFFFFFFFFFFFF000000FFFFFFFFFFFFFFFFF5
:4024C000FFFFFFFFFFFFFFFFFFFFFFFFFF000000000000000000000000000000000000000005000303000000FFFFFFFFFFFFFFFFFFFFFFFF1111111111111111111111111E
:4025000011111111111101111101111111111111111111111110111111111111111111111111110100000000000000000000000007F7F457F5F7FFFFFFF3FFF7FFFFFFFF51
:40254000FFFFFFFFFF00000027222353FFFFFFFF4FFF1FFFFFFFFFFFFFFFFFFFFF0000000000000000000000000000000000000000F000FF0FFF0000FFFFFFFFFFFFFFFF4D
:40258000FFFFFFFF111111131111111D11D1111111113131D1413111513D111111DD1111111111131113113111111111D1211111141111250000000000000000000000008E
:4025C000FFFFFFFFFFFFFFFFFFFFFFFFFFFFFFFFFFFFFFFFFF000000FF223333F02FF2FFFFFFFF0FFFFFFFFFFFFFFFFFFF0000000000000000000000000000000000000056
:402600000000000000070002FFFFFFFFFFFFFFFFFFFFFFFF161111111111111111F111111111311111313111513F11511111111111111111111111111111111111111121AE
:4026400011111111000000000000000000000000FFFFFFFFFFFFFFFFFFFFFFFFFFFFFFFFFFFFFFFFFF000000FFFFFFFFFFFFFFFFFFFFFFFFFFFFFFFFFFFFFFFFFF00000040
:40268000000000000000000000000000000000000000000000000000FFFFFFFFFFFFFFFFFFFFFFFF111111111111111111111111111111111111111111111111111111114A
:4026C000111111111111111111111111111111111111111100000000000000001F1F1F1F1F1F1F1F1F1F1F1F1F1F1F1F1F1F1F1F1F1F1F1F1F1F1F1F1F1F1F1F00000000A6
:402700000000000000000000000000000000000000000000FFFFFFFFFFFFFFFFFFFFFFFF111111111111111111111111111111111111111111111111111111111111111185
:402740001111111111111111111111111111111100000000000000001F1F1F1F1F1F1F1F1F1F1F1F1F1F1F1F1F1F1F1F1F1F1F1F1F1F1F1F1F1F1F1F000000000000000069
:4027800000000000000000000000000000000000FFFFFFFFFFFFFFFFFFFFFFFF111111111111111111111111111111111111111111111111111111111111111111111111C1
:4027C00011111111111111111111111100000000000000001F1F1F1F1F1F1F1F1F1F1F1F1F1F1F1F1F1F1F1F1F1F1F1F1F1F1F1F1F1F1F1F0000000000000000000000002D
:40280000000000000000000000000000FFFFFFFFFFFFFFFFFFFFFFFF11111111111111111111111111111111111111111111111111111111111111111111111111111111FC
:40284000111111111111111100000000000000001F1F1F1F1F1F1F1F1F1F1F1F1F1F1F1F1F1F1F1F1F1F1F1F1F1F1F1F1F1F1F1F00000000000000000000000000000000F0
:402880000070005003130000FFFFFFFFFFFFFFFFFFFFFFFF111111111111111111111111111111111111111111111111111111111111111111111111111111111111121161
:4028C0001111111100000000000000001F1F1F1F1F1F1F1F1F1F1F1F1F1F1F1F1F1F1F1F1F1F1F1F1F1F1F1F1F1F1F1F0000000000000000000000000000000000000000B4
:4029000000000000FFFFFFFFFFFFFFFFFFFFFFFF11111111111111111111111111111111111111111111111111111111111111111111111111111111111111111111111173
:4029400000000000000000001F1F1F1F1F1F1F1F1F1F1F1F1F1F1F1F1F1F1F1F1F1F1F1F1F1F1F1F1F1F1F1F00000000000000000000000000000000000000000000000077
:40298000FFFFFFFFFFFFFFFFFFFFFFFF11111111111111111111111111111111111111111111111111111111111111111111111111111111111111111111111100000000F3
:4029C000000000001F1F1F1F1F1F1F1F1F1F1F1F1F1F1F1F1F1F1F1F1F1F1F1F1F1F1F1F1F1F1F1F000000000000000000000000000000000000000000000000FFFFFFFFFB
:402A0000FFFFFFFFFFFFFFFF11111111111111111111111111111111111111111111111111111111111111111111111111111111111111111111111100000000000000006E
:402A40001F1F1F1F0A1F09021F0008021F1F1F1F1F1F1F1F1F1F1F1F1F1F1F1F1F1F1F1F000000000000000000000000000000000000000F00000000FFFFFFFFFFFFFFFF0A
:402A8000FFFFFFFF0101111111111111111D111111111110101110111111111111111111111111111111111111111111111111111111111100000000000000001F1F1F1F85
:402AC0001F1F1F1F1F1F1F1F1F1F1F1F1F1F1F1F1F1F1F1F1F1F1F1F1F1F1F1F00000000000000000000000000000000000F000F0F000000FFFFFFFFFFFFFFFFFFFFFFFF51
:402B000001D111111111111111111111111111101D111D111111111111111111111111111111111111111111111111111111111100000000000000001F1F1F1F1F1F1F1FA6
:402B40001F1F1F1F1F1F1F1F1F1F1F1F1F1F1F1F1F1F1F1F1F1F1F1F000000000000000000000000000000000000000000000000FFFFFFFFFFFFFFFFFFFFFFFF0111111145
:402B8000111111111111111111111110111111111111111111111111111111111111111111111111111111111111111100000000000000001F1F1F1F1F1F1F1F1F1F1F1FB6
:402BC0001F1F1F1F1F1F1F1F1F1F1F1F1F1F1F1F1F1F1F1F0000000000000000000000000000000000000000000F000FFFFFFFFFFFFFFFFFFFFFFFFFD1111111111111110F
:402C0000111111111111111D111111111111111111111111111111111111111111111111111111111111111100000000000000001F1F1F1F1F1F1F1F1F1F1F1F1F1F1F1FF0
:402C40001F1F1F1F1F1F1F1F1F1F1F1F1F1F1F1F000000000000000000000000000000000000000000000000FFFFFFFFFFFFFFFFFFFFFFFF111111111111111111111111A4
:402C80001111111111111111111111111111111111111111111111111111111111111111111111118C0A0010980A0010A40A0010B00A0010BC0A0010C80A0010D40A00102A
:402CC000E00A00100C0B0010160B0010200B00102A0B0010340B00103E0B0010480B0010520B001047656E6572617465645F536F757263655C50536F43365C70646C5C64E8
:402D00007269766572735C7065726970686572616C5C737973696E745C63795F737973696E742E630000000047656E6572617465645F536F757263655C50536F43365C7086
:402D4000646C5C647269766572735C7065726970686572616C5C6970635C63795F6970635F6472762E68000047656E6572617465645F536F757263655C50536F43365C70E2
:402D8000646C5C647269766572735C7065726970686572616C5C6970635C63795F6970635F6472762E63000047656E6572617465645F536F757263655C50536F43365C70A7
:402DC000646C5C647269766572732F7065726970686572616C2F6970632F63795F6970635F6472762E68000047656E6572617465645F536F757263655C50536F43365C70E9
:402E0000646C5C647269766572735C7065726970686572616C5C6970635C63795F6970635F706970652E630047656E6572617465645F536F757263655C50536F43365C70C4
:402E4000646C5C647269766572735C7065726970686572616C5C737973636C6B5C63795F737973636C6B2E630000000047656E6572617465645F536F757263655C50536F1C
:402E800043365C70646C5C647269766572735C7065726970686572616C5C737973636C6B5C63795F737973636C6B2E680000000047656E6572617465645F536F7572636500
:402EC0005C50536F43365C70646C5C647269766572735C7065726970686572616C5C6770696F5C63795F6770696F2E630000000047656E6572617465645F536F757263652B
:402F00005C50536F43365C70646C5C647269766572735C7065726970686572616C5C6770696F5C63795F6770696F2E680000000047656E6572617465645F536F75726365E5
:402F40005C50536F43365C70646C5C647269766572735C7065726970686572616C5C737973706D5C63795F737973706D2E63000047656E6572617465645F536F7572636590
:402F80005C50536F43365C70646C5C647269766572735C7065726970686572616C5C747269676D75785C63795F747269676D75782E630000000000000000001000000008EF
:402FC000C0000000D82F0010C00000085803000054040008F80100000048E80100127A0000093D0000093D0000093D0004000000A00F00000000D00702FF0000E90000106B
:40300000C1000010000000000004400B12D03E22094B1A60094A0A4B1A600A4B0621A322D2009950084A98509B58074B054AD358002BFADA7047C046040126401E1F0000E5
:4030400008012640000026401C05000010B54378FF2B0DD100F03CF9064BDB685A68116801230B4313601368DB07FCD400F020F910BDC04680002340F0B583B006000F0020
:4030800000F036F90500032824D12B4B1B69002B22DB002000F014F9284B98421ED00023274A0021012000F033F9002803D0254C17E0013400E00024002000F001F91F4B50
:4030C000984202D0204B9C42F3D91F4B9C4207D91C4C06E0002404E01A4C02E0194C00E00024002C24D100F0F3F80190174A0121174800F005F900280ED1002E04D1380041
:40310000FFF782FF134C08E0114B1B69002BFBDB00F006F9040000E00A4C032D05D10121002000F0DDF80028F9D1019800F0C0F8200003B0F0BDC046C00023400101880054
:40314000E000000805005200EF49020010060008000023400100500070B5304B1B68002BFBDA2E4BD96802220A43DA60DB68DB071FD52A4EF2681204150C294B1A69120A47
:403180001204FF2424042240110090241A59120A12060A432A43F2601969224A114090252D012943196119590A402A431A511A691B591A4B00225A605B681B4A1169042337
:4031C0000B431361012801D030BF00E020BF134B1B68002BFBDA114BDB68DB0715D510480269104B1A4014000C4DEA68120C1202FF2109020A4022430261902142581340D5
:40320000EA68120E120213434350044BDA6802218A43DA6000225A6070BDC046E000234000002140FF00FFFF00ED00E0164A116904230B431361012801D030BF00E020BF7C
:40324000124B1B68002BFBDA86235B00104AD358002B14D10F4A104B1A6006220F4B1A6038320F4B1A6006320E4B1A600D4B1B68002BFBDA0C4986235B00054AD15000229C
:40328000024B5A607047C04600ED00E0E0002340000025401E1F00000801264018052640040126401C052640AAAAAAAA0000000001B40248844601BC604700BF831E00106F
:4032C00001B40248844601BC604700BF610E001001B40248844601BC604700BF7B1E001001B40248844601BC604700BFD50D001001B40248844601BC604700BF1D040010D3
:4033000001B40248844601BC604700BFB10C001001B40248844601BC604700BF3D10001001B40248844601BC604700BF4D150010000000000000000000000000000000002D
:40334000000000000000000000000000000000000000000000000000000000000000000000000000000000000000000000000000000000000000000000000000000000004D
:40338000000000000000000000000000000000000000000000000000000000000000000000000000000000000000000000000000000000000000000000000000000000000D
:4033C00000000000000000000000000000000000000000000000000000000000000000000000000000000000000000000000000000000000000000000000000000000000CD
:0200000490303A
:020000004001BD
:0200000490501A
:0C0000000005E20721002101E216610169
:00000001FF