:020000041000EA
:4000000000400208310100100D000000950100100000000000000000000000000000000000000000000000000000000091010010000000000000000091010010910100109B
:4000400091010010AD040010910100109101001091010010910100109101001091010010910100109101001091010010910100109101001091010010910100109101001041
:400080009101001091010010910100109101001091010010910100109101001091010010910100109101001091010010910100109101001091010010910100109101001020
:4000C00010B5064C2378002B07D1054B002B02D0044800E000BF0123237010BD5404000800000000B42F0010084B10B5002B03D00749084800E000BF07480368002B00D131
:4001000010BD064B002BFBD09847F9E70000000058040008B42F0010EC000008000000007047EFF3108072B6704780F310887047FFF7F6FF72B6104C104DAC4209DA2168B1
:400140006268A368043B02DBC858D050FAE70C34F3E70B490B4A0020521A02DD043A8850FCDC094809490860BFF34F8F00F004F900F01EF8FEE70000B82F0010D02F0010D8
:40018000540400084C0600080000000808ED00E0FEE7FEE700B504207146084202D0EFF3098001E0EFF30880043001F0FDFDFEE710B562B6034800F053F9002001F032FDD4
:4001C000FBE7C0460000081070B56249E0239B00CB580F2213401A00D0329200525807210A40032A05D0042A06D0002A12D15A4814E05A4A106811E01A00C032920055492E
:4002000052581F210A40112A06D0132A04D0FA20C00103E0524801E080200002002B36D14C4BB222D2009A5801211140B125ED005A59120F032422405B591B0F1C4207D086
:40024000444C63591B0F03242340012B02D102E0012300E00023002B01D0002901D1032A4BD13C4BB022D2009D58AD03AD0B3D495958C904C90C9C58240E01231C400134FA
:4002800001F050FE6843210001F04CFE35E0012B33D1304BC822D2009A5801251540C024E4001A59120F03210A401B591B0F194207D028490B591B0F03210B40012B02D108
:4002C00002E0012300E00023002B01D0002D01D1032A12D11F4DC022D200AB587F210B40A958090A1F263140AC58240C3440584301F018FE210001F015FEE0239B00154AA6
:40030000D3581B0903221340D840144C6060164B1D692D0AFC32154001351969090E013101F000FEA060290001F0FCFD0500E06020610E4BC0180E4901F0F4FD20750D4BFD
:40034000E818FA21890001F0EDFDA061C003E06170BDC0460000264000127A00C000000800366E0184050000000021403F420F0040420F00E703000010B5234BB021C900A5
:400380005A58520052085A50E02080001A583024A2431A50802252045A501C491C4A9950A021890104329950FF211A4A995081315A58920092088020C00502435A505A58DD
:4003C0008020000602435A505A58012082435A5000F0D8F9FFF7F8FE00F070F800F078F801F0DAF8B0235B055B78002B04D0B0235B055B78DBB200E02123212B03D1064BD1
:400400000022DA605A6010BD0000264001000200840500008C050000E00023408023024AD3580320184070470000214010B5FFF778FE084980228C58074B2340074C2343F0
:400440008B508823034AD358DB06FAD5FFF76DFE10BDC04600002140FCFF00000100FA0570B50500FFF75DFE0400FFF7D7FF032801D1FFF7DBFF0A4AB0239B00D55080219E
:400480005058084B03400848034353508823044AD358DB06FAD52000FFF747FE70BDC04600002140FCFF00000300FA0510B5024800F044FE10BDC0467004000810B5034A63
:4004C00060328021042000F029FC10BD7005000810B501F0D2FC0400044800F0DFFC044800F046FD200001F0CCFC10BD70040008C0200010FEE7C046F0B50025002711E049
:40050000BB00C658F3B2FF22964308E06A008A181478A419527822700135013BDBB2002BF4D10137022FEBD9F0BDC046014A024B1A60704701001180000E1F4130B587B0F6
:400540006F4A116808230B4313606E4C03E0012001F0F0FB013C6A4B1B695B0701D4002CF5D1002C01D1684B00E00023002B02D00520FFF7BFFF654BA021C9005A5803208B
:4005800082435A50624990240A59624802400A510A691202120A8024640422430A610A6910400861E022920099580F208143995099582130814399509958802000060143ED
:4005C00099500021012000F01BFE0021022000F017FE0021032000F013FE0021042000F00FFE0021002000F00BFE01A84A4903000A0032CA32C312CA12C300F029FE002894
:4006000002D00420FFF776FF4049444A8B588020000603438B50424800F0D4FE002802D00420FFF767FF394C3E4BE1583E4A0A40E250E1583D4A0A40E250E25880252D0639
:400640002A43E250043BE158394A0A40E250E158384A0A40802189010A43E250E258802109020A43E250264A1168334B0B40802149000B431360002001F03AFC2F4AA35838
:400680001D43A550A3580125AB432B43A3506421002001F0A1FB2A4B00212A4A9950802000011A581B490A408C24A40122431A508022D20024489850985824481D5024486E
:4006C0001C582140F824E40121431950214999509958C52109015D501F495D5040201F495850902000011C581D4921401D4C214319501D4999509A581C4A9D5007B030BD97
:400700000000274020A1070002004A000000264000002140FF00FFFFF4200010087F0000400D030004050000FEFCFFFFFFFF00FFFFF0FFFFFF8FFFFFFFFCFFFF0C050000FE
:4007400000000140140C000000FF00804C0C00000408000001FF0080540C0000580C0000FF0000FF000F270040FF0080240C000010B50A00002101F06AFC10BD10B501F004
:400780005DFC10BD70B58EB09621002001F024FB01F0FAFA002814D101F0E6FAC0235B00854AD358DB0705D41100844A8B585B005B088B508049814A8B5880200006034355
:4007C0008B50012001F066F97D4A516C7D4B0B40E82189010B435364536C1B0AFF2213403A2B07D1764A516C774B0B40E82189010B435364002300227449754801F044FBD8
:40080000002300227349744801F03EFB002300227249734801F038FB0023002271498A20800001F031FB002300226F496F4801F02BFB002300226E496E4801F025FB0023FB
:4008400000226D496D4801F01FFB002300226C496C4801F019FB002300226B496B4801F013FB002300226A496A4801F00DFB002300226949694801F007FB0023002268494E
:400880008920800001F000FB3422002101A801F0DEFB644C01AA0021200000F087FE3422002101A801F0D3FB01AA0121200000F07DFEFFF743FE5C4A5C4B1A6000240CE0E3
:4008C0006200121953005A4AD318198B9A8AD88A00041043FFF74CFF01340B2CF0D900240AE0620012199300514AD3185A6E196ED86DFFF743FF0134112CF2D94D4D280013
:4009000064304D493431FFF7F7FD4C4A4C4B1A604C4A4D4B1A604D4A4D4B1A604D4A1368832149000B43136001AC22002B00703323CB23C223CB23C223CB23C221003948CE
:4009400000F09EFF444D22002B00143343CB43C243CB43C243CB43C22100404800F090FF22002B00383343CB43C243CB43C243CB43C221003A4800F083FF22002B005C3382
:4009800043CB43C243CB43C243CB43C22100354800F076FF22002B00143323CB23C223CB23C223CB23C221002F4800F069FFFFF7BDFD0EB070BDC046000026400C050000E6
:4009C00000002740FF00FFFFFFC5FFDF0E0E0040060E00000D020040290200000D0E0040070E0000010200400C0E0040080E00000C020040270200000B0E0040010E000005
:400A00000B020040260200000A0E0040030E00000A02004025020000090E0040040E000009020040000032400300FA05F0012140F420001074220010F4210010D0000C0020
:400A400020013840E0000F006001384030000B00A001384000793440F42200108000324080023240000332408005324010B583089A00801AC000FF228240D44381400A4013
:400A8000072B32D89B001949CB589F46184B196A0C4022431A6228E0154B596A0C4022435A6222E0124B996A0C4022439A621CE00F4BD96A0C402243DA6216E00C4B196BE4
:400AC0000C4022431A6310E0094B596B0C4022435A630AE0064B996B0C4022439A6304E0034BD96B0C402243DA6310BDA42C00100000214083089A00801AC100FF228A4088
:400B0000072B2BD89B001748C3589F46164B186A1040C84023E0144B586A1040C8401EE0114B986A1040C84019E00F4BD86A1040C84014E00C4B186B1040C8400FE00A4BC4
:400B4000586B1040C8400AE0074B986B1040C84005E0054BD86B1040C84000E00020C0B27047C046C42C00100000214070B504000D000B4B9A680B4B9A420BD1002903D1CA
:400B8000FC21094801F0E2F81034064BA400E058E55003E01034A400044BE05870BDC04600ED00E000000008E42C001000000010F0B583B0041E019150D04368032B03D96B
:400BC0003621294801F0C2F80023E05E002802DBA178FFF74BFF0023E25E6368002A12DB9008224EC0308000875903210A40D200FF25290091408F4399012B000B40934013
:400C00003B43835117E092B20F21114008398908063189001648844661444E6803200240D200FF2738009040864398013B000340934033434B600E4B9A680E4B9A420FD1E8
:400C4000019B002B03D14521074801F07FF80023E05E0199FFF78AFF002002E0064800E0002003B0F0BDC046E42C001000E100E000ED00E0000000080100560070B5040056
:400C80000D000369002B0ADA0B0C03D00549064801F05CF82D042D0C6560002000E0034870BDC046A7020000282D001001008A0070B505000C000368002B01DA002300E0F1
:400CC000084B002B0BD1EA60230C03D00649074801F03CF82404240CAC60002000E0014870BDC04601008A008E020000282D001070B505000C1E03D19921064801F026F8EC
:400D00002B69002B03DAEB682360002000E0024870BDC046682D001001008A00F8B504000E0015000F283FD8002A10D100290ED10F2804D99E21FF31214801F007F864019E
:400D4000204B9C466444204B1C60002037E0002D2CD0002E2CD0F3062CD10F2C04D99E21FF31174800F0F2FF6401164B9C466444154F3C607E60BD60F2080021280001F051
:400D800066F900212000FFF779FF3A0001CA0021FFF78EFF00280FD10B4B18680021FFF76DFF00280AD10AE0084808E0074806E0064804E0054802E0054800E00448F8BD32
:400DC000A82D0010000023400006000803018A0001018A00F0B583B00D001C4B1B68DC68236883422DD947097B01C01A012383401E00002903D101F040F8019001E00023B4
:400E00000193124B18680368002B01DA002300E00F4B002B0ED16368BF00DF193B68334203D0B3433B60002400E00A4C0021FFF725FF00E0084C002D04D1019801F021F8FD
:400E400000E0064C200003B0F0BDC0460006000801008A00020188000301880004018A000A4B1B68DA68136883420BD943095901401A0121814052689B009B580B4203D0F2
:400E8000034802E0034800E003487047000600080101880004018A0000018800034B1B68002B01D1014B18607047C0460C060008F0B5474680B404000F0090461E00072823
:400EC00003D9B421254800F041FF254B1B682C2060431C18FF22150035402560330A13406360330CA3600F2D04D99E21FF311D4800F02CFF6B011C4A94466344236165689D
:400F00000F2D04D9DC214900164800F01FFF6D01164B9C4665446561A668330C04D0EB214900104800F012FF330C04D0D821FF310C4800F00BFF3604330C1E43AE604346FC
:400F4000E36127620023A361069B002B02D000229B5EA38104BC9046F0BDC046E82D00100C060008A82D00100000234000102340F0B58FB0041E03D150212E4800F0E6FEC8
:400F80006368032B03D952212A4800F0DFFEE36A002B03D15621274800F0D8FEE368072B03D95721234800F0D1FE236A072B03D95821204800F0CAFE236B002B03D159217C
:400FC0001C4800F0C3FE07AA1300210061C961C321C921C302AD290023001433C1CBC1C141CB41C10821535E0CAE3380079B1933B370089B0D930B9B0A980096A26AE16AAD
:40100000FFF756FF2B69E868002200920021FFF74FFF216B3000FFF7CBFD0023F25E002A05DB1F231A401E3B9340034A13600FB0F0BDC046E82D001000E100E0F8B50500DF
:401040000F0016001C00002A03D1FC21244800F07DFE072D03D9FD21214800F077FE072F03D9FE211E4800F071FE1E4B1B682C2128004843181879435918012213004D6817
:40108000AB401B044568AA4015000269002A20D08F69002F1FD11268002A01DA002200E0114A002A19D132681204120C134333600369DE6001238B614C6204692B0C03D058
:4010C0000A490B4800F042FE2A04120CA260002004E0084802E0084800E00748F8BDC046E82D00100C06000801008A008E020000A82D001004028A0007028A0070B50500D0
:401100000C001600072804D96021FF31084800F01DFE084B1B682C2068431818C369B34204D9036AB6009C51002000E0024870BDE82D00100C0600080A028A0070B582B0C7
:40114000040000230193002804D1D92149002B4800F0FCFD2369002B04D1B421FF31274800F0F4FD6369002B04D1DA214900234800F0ECFD236A002B04D1B621FF311F48E8
:4011800000F0E4FD6269D5682B0C1FD01B041360136820690369002B18DA01A9FFF7A8FD00280ED1019803681E0CFF221340E269934207D29B00226AD358002B02D09847FC
:4011C00000E0002631002069FFF758FD2D042D0C0FD063691D601B68636A002B03D098470023636203E0A36A002B00D098470023A36163691B6802B070BDC046E82D0010F3
:4012000004281DD8042904D94B1EFF3B9BB2132B18D8FF290CD91F2319400B4A0300C0339B009950D03080000423835000200AE007231940D0308000034BC150002002E006
:40124000024800E0014870470000264001004A0070B5041E04D1EF2149004C4800F076FDB023DB004A4AD358002B01DB002500E0484D002D00D086E0474B22689A4204D9E1
:40128000EE21FF31414800F061FD23689B03990BE3791B068022520413400B43B022D2003B498B50A2883D4B9A4204D9FA214900364800F04BFD2289394B9A4204D9F621AE
:4012C000FF31324800F042FDA388DB04D90C23891B04344A13400B43334A2D498B50A37A0F2B04D9FC21FF31284800F02FFDE37A0F2B04D9FE214900244800F027FDA289DA
:40130000264B9A4204D9FE21FF31204800F01EFDA37A0F211940E27A1201FF2313400B43A289120221490A401343A27B1207C02189050A401343B122D20015498B50A37961
:40134000072B03D91A49114800F000FD228A144B9A4203D917490D4800F0F8FC0C4816494658164B1E40A3791B02E022D2001340334343504658124B1E40238A1B04094A69
:40138000134033434350280070BDC046282E00100000264003004A00FFFF0300FF1F0000FF0100000000FF018405000000FF1F0005020000060200008C050000FFF8FFFF02
:4013C000FFFF00FE70B505002D492E4A8B588020000603438B502C0003E0012000F0AAFC013CB223DB00264AD3585B0701D4002CF3D12349B122D2008858234B0340802078
:40140000800503438B50002D02D00ED0002C0CD01B49B022D2008B588020000603438B5003E0012000F086FC013CB223DB00144AD358DB0701D4002CF3D1002D0ED0002CA5
:401440000CD10F4AB021C90053585B005B0853500C4953585B005B0853500BE0084B0221B222D2009950B121C9005A58C020800502435A50002C01D1044800E0002070BD27
:40148000000026408C050000FFFFFFCF02004A00214B984230D00ED8402831D004D800281FD010282AD031E080282BD080235B00984229D02AE0194B984229D007D8A023FB
:4014C0001B0698420DD0164B984212D01EE0154B98420AD0144B984209D0144B984215D101E0002016E0124814E0124812E0124810E0A020C0030DE007480BE00F4809E0EF
:401500000F4807E00F4805E0034803E00E4801E0A420C0037047C04606005200010000F0090000A0040000F0050000F0030000F0010052000200520003005200010050006D
:401540000200500005005200FF00520010B50C4B1B69002B11DB0B4B1868FFF799FF0121094B0A4AD150084B084AD358002BFAD1074BD358002BF6D100E0064810BDC04635
:4015800000002340100600080C040000000025408C0400000200500010B5022202490020FFF7ACFD10BDC04635010008F8B506000D001400002800D142E1002A00D141E142
:4015C000072903D93921A04800F0C0FB2368012B03D93A219C4800F0B9FB0F2362689A4303D03B21984800F0B1FB237A1F22934303D03C21944800F0A9FBE368032B03D94F
:401600003D21914800F0A2FB2369012B03D93E218D4800F09BFB6369012B03D93F218A4800F094FBA369012B03D94021864800F08DFBE369032B03D94121834800F086FB64
:40164000236A012B03D942217F4800F07FFB636A012B03D943217C4800F078FBA36A012B03D94421784800F071FBE36A032B03D94521754800F06AFB236B072B03D9462179
:40168000714800F063FB2768072D03D96F49704800F05CFB012F04D9BA2189006C4800F055FB002F03D10123AB40736002E00123AB40B3606768072D04D9E4218900644865
:4016C00000F044FB0F233A009A4303D06149604800F03CFBAA00B36A0F210800904083430F4097401F43B762277A072D03D95A49574800F02BFB1F233A009A4303D057491B
:40170000534800F023FB564BF318DB09554A944663441B01032D0BD81A68E8001F2181408A4311001F223A4082400A431A600BE0291F5A68C9001F208840824310001F22B9
:401740003A408A4002435A60E768082D03D946493F4800F0FBFA032F03D944493C4800F0F5FA6A00736A03210800904083430F4097401F4377622769082D03D93C493448C1
:4017800000F0E4FA012F04D9CA21C900304800F0DDFAB36901221100A9408B431740AF401F43B7616769072D03D93249284800F0CDFA012F03D93049254800F0C7FAF26A13
:4017C00001231900A9408C468A431F40AF401743F7626F00103703210800B84062461043326B8243A0691840A8400243E0690140B9400A433263706BFF2294469043276ABF
:401800001F40636A5A00022313403B43A26A9100042739400B431F00E36AD900182319403B000B43226B520161460A401343AD00FE2292001540AB4003437363002002E057
:401840000E4800E00D48F8BDB02E0010E7020000F02E00109103000045020000460200000000CEBF00100304D4060000D50600004F060000D2030000D303000001005A004C
:4018800070B505000C00002848D0002948D0FF230A689A4303D08D21224800F057FAFF2322699A4303D08E211E4800F04FFAA3685B0D03D08F211B4800F048FA63685B0A6E
:4018C00003D09021174800F041FAE3695B0F03D09121144800F03AFA236A5B0F03D09221104800F033FA104BEB18DB090F4A944663441B0122682A60E268AA622269EA62B4
:4019000062692A63A2686A626268AA61A2696A63E2691A60226A5A60002002E0044800E0034870BDB02E00100000CEBF0010030401005A00034A9369802149040B439361B5
:401940007047C04600F02540024A9169024B0B409361704700F02540FFFFFFFE0D4BF222D2019A580260F022D2019A5842600A4A9A588260094A9A58C260094A9A58026139
:40198000084A9A584261084A9A588261074A9B58C36170470000344004780000087800000C7800001078000014780000187800000D4BF022D201416899500C4A816899506B
:4019C0000B4AC16899500B4A016999500A4A416999500A4A81699950094AC16999500168E83299507047C0460000344004780000087800000C780000107800001478000033
:401A00001878000010B5074A074813580F24A34302210B43135004381358A3431943115010BDC0460000214004F0000010B5074A074813580F24A34303210B4313500438ED
:401A40001358A3431943115010BDC0460000214004F000000449054A8858054B0340C020C00103438B5070470000214004F00000FF8FFFFF0449054A8858054B0340802018
:401A8000C00103438B5070470000214004F00000FF8FFFFF70B50500012803D92A492B4800F054F900F0E9F90400294B294AD3581F221340E822D200B02149058A5CD31A10
:401AC0005A1E9341DBB29D4239D0002D14D1FFF731FFFFF797FF1F481D4943581F229343143A13434350FFF7B5FFE823DB00B0225205D35CDAB211E01648154943581F22AE
:401B00009343143A13434350092000F013F9FFF7B1FF114BB0225205D35CDAB20D4E0C4831581F23994313400B433350012D06D1092000F0FFF8FFF779FFFFF705FF200076
:401B400000F09FF970BDC046ED060000302F00101CFF0000000026404107000070B584B005000E00042803D929492A4800F0EEF8731EDBB2012B07D9042E05D0082E03D017
:401B80002549244800F0E2F8042E01D0012E1DD1224B5C68002013E023799D420FD1A368002B01D01E420AD1E36801A85A6842609B688360067023689847184B9C60646936
:401BC000002C23D0164B9842E6D11FE0134B9C68022E02D1002C00D02469002011E023799D420DD1A368002B01D01E4208D1E36801A85A6842609B6883600670236898471F
:401C00002469002C02D0064B9842E8D104B070BD24080000302F00102508000020060008FF00420070B50500012804D9F221FF31384800F08BF8384B1B68002B05D001218F
:401C40000120FFF78BFF040000E00024002C59D100F013F90600304B1B68002B03D004210120FFF77BFFE0232C4AD358DB0603D529480C30FFF772FEB0235B055B78002B10
:401C800004D0B0235B055B78DBB200E02123212B03D1280000F004FA1FE02149214BCB581F221340E822D200B0204005825CD31A5A1E9341DBB20A68120207D4012B05D1DF
:401CC000194BC158194B164AD15003E00021174B134AD150280000F0EBF9E0230F4AD358DB0603D50C480C30FFF762FE300000F0C8F8094B1B68002B09D008210120FFF781
:401D00002DFF04E002210120FFF728FF084C200070BDC046302F00102006000800000140000026401CFF000010180000307F0000FF00420010B5034B1B78584300F094F857
:401D400010BDC046D400000801BEFEE770B50D00044C18220100200000F081F9A5610020FFF7F2FF18040008054B802212069A649B6C002B01DB002000E002487047C0467B
:401D80000000274003004600054B8022120198585B68FF221A4202D08023DB021843704700002640FEE7C04610B50A4B0268DA6142681A6282685A62C2689A620269DA6231
:401DC00042691A6382695A63C2699A63FFF7EAFF10BDC04618040008F0B5002801D0192200E064228A42924152421C4BE8256D005C590327BC433A4014435C515C59184E4B
:401E000034405C51D03D5C59BC4322435A515A5916405E51002805D010290DD921290DD8012014E01D290BD93A290BD957290BD978290BD803200AE0002008E0022006E022
:401E4000002004E0012002E0022000E00420054A13680F218B4303431360F0BD00002140FFFCFFFF000025400230800803D001300238FCD1C046C0467047EFF3108072B626
:401E8000704780F310887047F8B506000C0015001F00012B03D936211248FFF757FF32006240F0231B01134019D1220A0F210A40D20170310C401419A4000B4A9446644463
:401EC000FF221640002D01D00133FF3333437F028026B60037403B432360002000E00348F8BDC046702F0010002001400100CE00042805D1094A116804230B4313600CE0B5
:401F00000006C0239B04184090239B00044AD050024A136804218B431360704710E000E000002140002243088B4274D303098B425FD3030A8B4244D3030B8B4228D3030C8E
:401F40008B420DD3FF22090212BA030C8B4202D31212090265D0030B8B4219D300E0090AC30B8B4201D3CB03C01A5241830B8B4201D38B03C01A5241430B8B4201D34B03DC
:401F8000C01A5241030B8B4201D30B03C01A5241C30A8B4201D3CB02C01A5241830A8B4201D38B02C01A5241430A8B4201D34B02C01A5241030A8B4201D30B02C01A5241EA
:401FC000CDD2C3098B4201D3CB01C01A524183098B4201D38B01C01A524143098B4201D34B01C01A524103098B4201D30B01C01A5241C3088B4201D3CB00C01A524183087B
:402000008B4201D38B00C01A524143088B4201D34B00C01A5241411A00D20146524110467047FFE701B5002000F006F802BDC0460029F7D076E770477047C046002310B537
:402040009A4203D0CC5CC4540133F9E710BD03008218934202D019700133FAE77047030030B5002A0DD00C7801335D1E013A2C700131002CF5D19A189A4202D01C700133BA
:40208000FAE730BDF8B5C046F8BC08BC9E467047F8B5C046F8BC08BC9E4670470000000001B40248844601BC604700BF4102000801B40248844601BC604700BF1503000883
:4020C0000300000001000000010000000000000005036000040000000100000000000000010000000604600008000000E0050008AD040010F4010000140004010A00090527
:402100000800000063010000002034407400802034407400002234407400802234407400002434407400802434407400002634407400802634407400002834407400802823
:4021400034407400002A34407400802A3440740000213440742300109000000000233440042400109000000000253440942400109000000000273440242500109000000033
:4021800000293440B425001090000000002B3440442600109000000000603440D42600107C00000080603440502700107C00000000613440CC2700107C0000008061344006
:4021C000482800107C00000000623440C42800107C00000080623440402900107C00000000633440BC2900107C00000080633440382A00107C00000000643440B42A0010F7
:402200007C00000080643440302B00107C00000000653440AC2B00107C00000080653440282C00107C000000002002100402060108010A020B020C100E2010021205142066
:40224000161018201A101B011C021E093008310132043403350236303AA05C045D0463018010822084028601870288028A0590019202970198209A109C029E09A020A2104B
:40228000A820AA10B003B208B302B404B630B701BA82DC04DD04E301830188028A018C018E06901092209401960298209A109C209E10A001A20AAC20AE10AF02B030B20420
:4022C000B403B501B608B702BA22DC04DD04E3010001140118010000382634401C283440037834400800000000000000000000000060000000000000000000000000000069
:4023000000000000000000000200000000000000000000006000000000000000000000000000000000000000000000000200000000000000000000006888880800000000B9
:4023400000000000000000000012000000000000000000000000000000000000000000BA0000000000000000000000000000000000001D1D00000000000000000000000057
:40238000FFFFFFFFFFFFFFFFFFFFFFFFFFFFFFFFFFFFFFFFFF000000FFFFFFFFFFFFFFFFFFFFFFFFFFFFFFFFFFFFFFFFFF0000000000000000000000000000000000000047
:4023C0000000000000000000FFFFFFFFFFFFFFFFFFFFFFFF1111111111111111111111111111111111111111111111111111111111111111111111111111111111111111FD
:4024000011111111000000000000000000000000FFFFFFFFFFFFFFFFFFFFFFFFFFFFFFFFFFFFFFFFFF000000FFFFFFFFFFFFFFFFFFFFFFFFFFFFFFFFFFFFFFFFFF00000082
:40244000000000000000000000000000000000000000000700000000FFFFFFFFFFFFFFFFFFFFFFFF1111111111111111111111111111111111111111111111111111111185
:402480001111111111111111111111111111111111111101000000000000000000000000FFFFFFFFFFFFFFFFFFFFFFFFFFFFFFFFFFFFFFFFFF000000FFFFFFFFFFFFFFFFF5
:4024C000FFFFFFFFFFFFFFFFFFFFFFFFFF000000000000000000000000000000000000000005000303000000FFFFFFFFFFFFFFFFFFFFFFFF1111111111111111111111111E
:4025000011111111111101111101111111111111111111111110111111111111111111111111110100000000000000000000000007F7F457F5F7FFFFFFF3FFF7FFFFFFFF51
:40254000FFFFFFFFFF00000027222353FFFFFFFF4FFF1FFFFFFFFFFFFFFFFFFFFF0000000000000000000000000000000000000000F000FF0FFF0000FFFFFFFFFFFFFFFF4D
:40258000FFFFFFFF111111131111111D11D1111111113131D1413111513D111111DD1111111111131113113111111111D1211111141111250000000000000000000000008E
:4025C000FFFFFFFFFFFFFFFFFFFFFFFFFFFFFFFFFFFFFFFFFF000000FF223333F02FF2FFFFFFFF0FFFFFFFFFFFFFFFFFFF0000000000000000000000000000000000000056
:402600000000000000070002FFFFFFFFFFFFFFFFFFFFFFFF161111111111111111F111111111311111313111513F11511111111111111111111111111111111111111121AE
:4026400011111111000000000000000000000000FFFFFFFFFFFFFFFFFFFFFFFFFFFFFFFFFFFFFFFFFF000000FFFFFFFFFFFFFFFFFFFFFFFFFFFFFFFFFFFFFFFFFF00000040
:40268000000000000000000000000000000000000000000000000000FFFFFFFFFFFFFFFFFFFFFFFF111111111111111111111111111111111111111111111111111111114A
:4026C000111111111111111111111111111111111111111100000000000000001F1F1F1F1F1F1F1F1F1F1F1F1F1F1F1F1F1F1F1F1F1F1F1F1F1F1F1F1F1F1F1F00000000A6
:402700000000000000000000000000000000000000000000FFFFFFFFFFFFFFFFFFFFFFFF111111111111111111111111111111111111111111111111111111111111111185
:402740001111111111111111111111111111111100000000000000001F1F1F1F1F1F1F1F1F1F1F1F1F1F1F1F1F1F1F1F1F1F1F1F1F1F1F1F1F1F1F1F000000000000000069
:4027800000000000000000000000000000000000FFFFFFFFFFFFFFFFFFFFFFFF111111111111111111111111111111111111111111111111111111111111111111111111C1
:4027C00011111111111111111111111100000000000000001F1F1F1F1F1F1F1F1F1F1F1F1F1F1F1F1F1F1F1F1F1F1F1F1F1F1F1F1F1F1F1F0000000000000000000000002D
:40280000000000000000000000000000FFFFFFFFFFFFFFFFFFFFFFFF11111111111111111111111111111111111111111111111111111111111111111111111111111111FC
:40284000111111111111111100000000000000001F1F1F1F1F1F1F1F1F1F1F1F1F1F1F1F1F1F1F1F1F1F1F1F1F1F1F1F1F1F1F1F00000000000000000000000000000000F0
:402880000070005003130000FFFFFFFFFFFFFFFFFFFFFFFF111111111111111111111111111111111111111111111111111111111111111111111111111111111111121161
:4028C0001111111100000000000000001F1F1F1F1F1F1F1F1F1F1F1F1F1F1F1F1F1F1F1F1F1F1F1F1F1F1F1F1F1F1F1F0000000000000000000000000000000000000000B4
:4029000000000000FFFFFFFFFFFFFFFFFFFFFFFF11111111111111111111111111111111111111111111111111111111111111111111111111111111111111111111111173
:4029400000000000000000001F1F1F1F1F1F1F1F1F1F1F1F1F1F1F1F1F1F1F1F1F1F1F1F1F1F1F1F1F1F1F1F00000000000000000000000000000000000000000000000077
:40298000FFFFFFFFFFFFFFFFFFFFFFFF11111111111111111111111111111111111111111111111111111111111111111111111111111111111111111111111100000000F3
:4029C000000000001F1F1F1F1F1F1F1F1F1F1F1F1F1F1F1F1F1F1F1F1F1F1F1F1F1F1F1F1F1F1F1F000000000000000000000000000000000000000000000000FFFFFFFFFB
:402A0000FFFFFFFFFFFFFFFF11111111111111111111111111111111111111111111111111111111111111111111111111111111111111111111111100000000000000006E
:402A40001F1F1F1F0A1F09021F0008021F1F1F1F1F1F1F1F1F1F1F1F1F1F1F1F1F1F1F1F000000000000000000000000000000000000000F00000000FFFFFFFFFFFFFFFF0A
:402A8000FFFFFFFF0101111111111111111D111111111110101110111111111111111111111111111111111111111111111111111111111100000000000000001F1F1F1F85
:402AC0001F1F1F1F1F1F1F1F1F1F1F1F1F1F1F1F1F1F1F1F1F1F1F1F1F1F1F1F00000000000000000000000000000000000F000F0F000000FFFFFFFFFFFFFFFFFFFFFFFF51
:402B000001D111111111111111111111111111101D111D111111111111111111111111111111111111111111111111111111111100000000000000001F1F1F1F1F1F1F1FA6
:402B40001F1F1F1F1F1F1F1F1F1F1F1F1F1F1F1F1F1F1F1F1F1F1F1F000000000000000000000000000000000000000000000000FFFFFFFFFFFFFFFFFFFFFFFF0111111145
:402B8000111111111111111111111110111111111111111111111111111111111111111111111111111111111111111100000000000000001F1F1F1F1F1F1F1F1F1F1F1FB6
:402BC0001F1F1F1F1F1F1F1F1F1F1F1F1F1F1F1F1F1F1F1F0000000000000000000000000000000000000000000F000FFFFFFFFFFFFFFFFFFFFFFFFFD1111111111111110F
:402C0000111111111111111D111111111111111111111111111111111111111111111111111111111111111100000000000000001F1F1F1F1F1F1F1F1F1F1F1F1F1F1F1FF0
:402C40001F1F1F1F1F1F1F1F1F1F1F1F1F1F1F1F000000000000000000000000000000000000000000000000FFFFFFFFFFFFFFFFFFFFFFFF111111111111111111111111A4
:402C80001111111111111111111111111111111111111111111111111111111111111111111111118C0A0010980A0010A40A0010B00A0010BC0A0010C80A0010D40A00102A
:402CC000E00A00100C0B0010160B0010200B00102A0B0010340B00103E0B0010480B0010520B001047656E6572617465645F536F757263655C50536F43365C70646C5C64E8
:402D00007269766572735C7065726970686572616C5C737973696E745C63795F737973696E742E630000000047656E6572617465645F536F757263655C50536F43365C7086
:402D4000646C5C647269766572735C7065726970686572616C5C6970635C63795F6970635F6472762E68000047656E6572617465645F536F757263655C50536F43365C70E2
:402D8000646C5C647269766572735C7065726970686572616C5C6970635C63795F6970635F6472762E63000047656E6572617465645F536F757263655C50536F43365C70A7
:402DC000646C5C647269766572732F7065726970686572616C2F6970632F63795F6970635F6472762E68000047656E6572617465645F536F757263655C50536F43365C70E9
:402E0000646C5C647269766572735C7065726970686572616C5C6970635C63795F6970635F706970652E630047656E6572617465645F536F757263655C50536F43365C70C4
:402E4000646C5C647269766572735C7065726970686572616C5C737973636C6B5C63795F737973636C6B2E630000000047656E6572617465645F536F757263655C50536F1C
:402E800043365C70646C5C647269766572735C7065726970686572616C5C737973636C6B5C63795F737973636C6B2E680000000047656E6572617465645F536F7572636500
:402EC0005C50536F43365C70646C5C647269766572735C7065726970686572616C5C6770696F5C63795F6770696F2E630000000047656E6572617465645F536F757263652B
:402F00005C50536F43365C70646C5C647269766572735C7065726970686572616C5C6770696F5C63795F6770696F2E680000000047656E6572617465645F536F75726365E5
:402F40005C50536F43365C70646C5C647269766572735C7065726970686572616C5C737973706D5C63795F737973706D2E63000047656E6572617465645F536F7572636590
:402F80005C50536F43365C70646C5C647269766572735C7065726970686572616C5C747269676D75785C63795F747269676D75782E630000000000000000001000000008EF
:402FC000C0000000D82F0010C00000085803000054040008F80100000048E80100127A0000093D0000093D0000093D0004000000A00F00000000D00702FF0000E90000106B
:40300000C1000010000000000004400B12D03E22094B1A60094A0A4B1A600A4B0621A322D2009950084A98509B58074B054AD358002BFADA7047C046040126401E1F0000E5
:4030400008012640000026401C05000010B54378FF2B0DD100F03CF9064BDB685A68116801230B4313601368DB07FCD400F020F910BDC04680002340F0B583B006000F0020
:4030800000F036F90500032824D12B4B1B69002B22DB002000F014F9284B98421ED00023274A0021012000F033F9002803D0254C17E0013400E00024002000F001F91F4B50
:4030C000984202D0204B9C42F3D91F4B9C4207D91C4C06E0002404E01A4C02E0194C00E00024002C24D100F0F3F80190174A0121174800F005F900280ED1002E04D1380041
:40310000FFF782FF134C08E0114B1B69002BFBDB00F006F9040000E00A4C032D05D10121002000F0DDF80028F9D1019800F0C0F8200003B0F0BDC046C00023400101880054
:40314000E000000805005200EF49020010060008000023400100500070B5304B1B68002BFBDA2E4BD96802220A43DA60DB68DB071FD52A4EF2681204150C294B1A69120A47
:403180001204FF2424042240110090241A59120A12060A432A43F2601969224A114090252D012943196119590A402A431A511A691B591A4B00225A605B681B4A1169042337
:4031C0000B431361012801D030BF00E020BF134B1B68002BFBDA114BDB68DB0715D510480269104B1A4014000C4DEA68120C1202FF2109020A4022430261902142581340D5
:40320000EA68120E120213434350044BDA6802218A43DA6000225A6070BDC046E000234000002140FF00FFFF00ED00E0164A116904230B431361012801D030BF00E020BF7C
:40324000124B1B68002BFBDA86235B00104AD358002B14D10F4A104B1A6006220F4B1A6038320F4B1A6006320E4B1A600D4B1B68002BFBDA0C4986235B00054AD15000229C
:40328000024B5A607047C04600ED00E0E0002340000025401E1F00000801264018052640040126401C052640AAAAAAAA0000000001B40248844601BC604700BF831E00106F
:4032C00001B40248844601BC604700BF610E001001B40248844601BC604700BF7B1E001001B40248844601BC604700BFD50D001001B40248844601BC604700BF1D040010D3
:4033000001B40248844601BC604700BFB10C001001B40248844601BC604700BF3D10001001B40248844601BC604700BF4D150010000000000000000000000000000000002D
:40334000000000000000000000000000000000000000000000000000000000000000000000000000000000000000000000000000000000000000000000000000000000004D
:40338000000000000000000000000000000000000000000000000000000000000000000000000000000000000000000000000000000000000000000000000000000000000D
:4033C00000000000000000000000000000000000000000000000000000000000000000000000000000000000000000000000000000000000000000000000000000000000CD
:020000041008E2
:4000000000780408F90208100D00000061030810610308106103081061030810000000000000000000000000000000005D0308105D030810000000005D0308105D0308104C
:400040005D0308105D0308105D0308105D0308105D0308105D0308105D0308105D0308105D0308105D0308105D0308105D0308105D0308105D0308105D0308105D03081000
:400080005D0308105D0308105D0308105D0308105D0308105D0308105D0308105D0308105D0308105D0308105D0308105D0308105D030810ED0808105D0308105D0308102B
:4000C0005D0308105D0308105D0308105D0308105D0308105D0308105D0308105D0308105D0308105D0308105D0308105D0308105D0308105D0308105D0308105D03081080
:400100005D0308105D0308105D0308105D0308105D0308105D0308105D0308105D0308105D0308105D0308105D0308105D0308105D0308105D0308105D0308105D0308103F
:400140005D0308105D0308105D0308105D0308105D0308105D0308105D0308105D0308105D0308105D0308105D0308105D0308105D0308105D0308105D0308105D030810FF
:400180005D0308105D0308105D0308105D0308105D0308105D0308105D0308105D0308105D0308105D0308105D0308105D0308105D0308105D0308105D0308105D030810BF
:4001C0005D0308105D0308105D0308105D0308105D0308105D0308105D0308105D0308105D0308105D0308105D0308105D0308105D0308105D0308105D0308105D0308107F
:400200005D0308105D0308105D0308105D0308105D0308105D0308105D0308105D0308105D0308105D0308105D0308105D0308105D0308105D0308105D0308105D0308103E
:400240005D0308105D0308105D0308105D0308105D0308105D0308105D0308105D0308105D0308105D0308105D0308105D0308105D0308105D0308105D0308105D030810FE
:400280005D0308105D0308105D03081010B5054C237833B9044B13B10448AFF300800123237010BD9CA2020800000000A06C0810084B10B51BB108490848AFF300800848D1
:4002C000036803B910BD074B002BFBD0BDE81040184700BF00000000A0A20208A06C081030470208000000007047EFF3108072B6704780F310887047FFF7F6FF72B6114C84
:40030000114DAC4209DA21686268A368043BA2BFC858D050FAE70C34F3E70C490C4A00209142BCBF41F8040BFAE70A480A490860BFF34F8F00F0C6FA00F0A0FA00F0EAF86A
:40034000FEE7000084830A109C830A109CA2020858B402080040020808ED00E0FEE7FEE700B504207146084202D0EFF3098001E0EFF30880043002F0FDF8FEE701220B4B1C
:400380001A700B4BC3F8F021D3F8F031094BB3F90030002B09DB5A0903F01F03012101FA03F36032044941F822307047B8A20208000038405854081000E100E038B544F236
:4003C000080398423DD00C4607D8B0F5805F11D044F20603984214D038BD45F2020398424BD045F20C03984251D045F2010398427AD135E00021084602F0A4FC3B4B58605D
:4004000038BD3B4B1B78022B0CD13A4804F0FCFA0223394A53600821803A916002F5B062936038BD002B5FD1344804F0EDFA0223314A93600821803A516002F5B062936043
:4004400038BD2F4804F0E0FA0021084602F07AFC264B5860002847D12A4804F0D5FA38BD294804F0D1FA0223234A93600821803A916002F5B062536038BD02231E4A93601E
:400480000821803A516002F5B062936038BD1F4D284602F0CFFD2B78687843EA00201FF051FC2389132B04D1226811780F4A11720CE0162B04D1226811780C4A517205E032
:4004C000192B03D122681178084A91721B2B0BD123681B78012B07D10D4B0022C3F88821C3F84821C3F8082138BD00BFB8A2020831B402082053081080003240E85208107C
:400500000053081018530810345308102CB402080000384008B562B6574800F021FA00F007FA564C5649204600F094FAB4F90030002B08DB590903F01F03012202FA03F3C0
:40054000504A42F821304D4BB3F90030002B09DB5A0903F01F03012101FA03F36032494941F8223000F022FA474804F04DFA474804F04AFA464C474A0221204600F076FFEB
:400580000423A3602361444A0121204600F06EFF0223A3602361414A0021204600F066FF0123A360236106F003FD3D4B1B78012BF9D13B4B00221A70354AD2F8881101F14F
:4005C0000041D960D2F8481101F100411961D2F8082102F100425A611B7AB3B1314B5B78314AD35C13F0FF0F0FD1304912230B812B4C04F10C030B6004238B80294802F036
:40060000A1FD606008B906F0D3FC254B5B7AB3B1244B5B78244AD35C13F0FF0F0FD1244915230B811E4C04F110030B6004238B801C4802F087FD606008B906F0B9FC184BB4
:400640009B7A002BAFD0174B5B78174AD35C13F0FF0FA8D1174918230B81114C04F114030B6004238B800F4802F06CFD6060002899D106F09DFC96E7BD0308105854081093
:400680007D03081000E100E04C5308108C53081000003840BC540810FC540810DC540810B8A202082CB4020844B40208C4B30208E0B30208D0B3020838B514460D4601B19C
:4006C00022B94FF4A961064801F03EFF22462946044800F06BFF0A2001F012FF002038BDE453081000006640704700BF5C4AD2F8803303F00F0303F1D00152F8212002F0C3
:400700000702032A04D0042A05D092B9554914E0554A116811E003F1C002514951F8222002F01F02112A06D0132A04D04FF4FA4103E04E4901E04FF400418BBB484BD3F8B5
:40074000902502F00100D3F88825C2F30172D3F8883513F0405F07D0414BD3F88835C3F30173012B02D102E0012300E0002303B108B9032A46D13A48D0F88025C2F3110379
:40078000D0F88425C2F30C02D0F88005C0F300600130B1FBF2F202FB03F2B2FBF0F131E0012B2FD12E4BD3F8402602F00100D3F80026C2F30172D3F8003613F0405F07D0F7
:4007C000274BD3F80036C3F30173012B02D102E0012300E0002303B108B9032A12D12048D0F8002602F07F02D0F80036C3F30423D0F80006C0F3044002FB01F2B2FBF3F2E4
:40080000B2FBF0F1164BD3F88033C3F3011321FA03F215494A601648D0F89030C3F3072301330069000E0130B2FBF0F08860B2FBF3F3CB600B6103F5742202F23F220D48F0
:40084000A0FB0202C2F387420A7503F2E7330A4AA2FB03239B098B61DB03CB61704700BF0000264000127A008C42020800366E010000214083DE1B43D34D621008B5104B6D
:40088000D3F8802122F0404242F08042C3F88021D3F8802142F00042C3F88021D3F8802122F00102C3F88021FFF71EFFFFF71EFF00F024F800F02AF801F0BCFA08BD00BF60
:4008C0000000264008B5FFF710FD074AD2F8883043F47003C2F88830BFF34F8FBFF36F8FFFF707FD08BD00BF00ED00E008B5024800F078FB08BD00BFFCA2020808B50022E3
:400900001146042000F030F908BD00BF10B501F08CFE0446044800F027FA044800F088FA204601F086FE10BDD0A202082454081008B5084B1B783BB9074A0321074800F0FB
:400940000DFD0122034B1A70044B08229A609A6108BD00BF50A40208705408100000384008B518B1094AD062002000E0084858B9084B1B782BB9054801F0C6FE0122054B83
:400980001A7008B901F0E6FE08BD00BFAC4202080100160051A4020808B50249024801F031F908BDECB302080000664008B5114B1B785BB9104A1149114800F0F9FE1149F6
:4009C000114800F047F801220A4B1A700E4BB3F90030002B08DB590903F01F03012202FA03F30A4A42F82130054A136843F00043136008BD7CA40208ECB30208B85708104D
:400A000000006640990908106054081000E100E038B50C4B9A680C4B9A420ED10D46044619B9FC21094801F08FFD04F11003064A52F8230042F8235038BD1030044B53F8D6
:400A4000200038BD00ED00E000400208F85708100000081070B338B504460D464368072B03D93621154801F06FFDB4F900306268002B08DB5201D2B203F1604303F5614395
:400A800083F8002305E003F00F035201D2B20C49CA540C4B9A680C4B9A420DD11DB94521064801F051FD2946B4F90000FFF7B0FF002038BD05487047002038BDF8570810DB
:400AC00014ED00E000ED00E0004002080100560038B50369002B0DDA0D4604460B0C1B0423B140F2A721044801F02EFDA9B26160002038BD014838BD3C58081001008A008D
:400B000038B50368002B01DA002300E0094B73B90D460446C2600B0C1B0423B140F28E21054801F011FDA9B2A160002038BD014838BD00BF01008A003C58081038B5044602
:400B40000D4619B99921064801F0FEFC2369002B03DAE3682B60002038BD024838BD00BF7C58081001008A000F2840D8F8B515460E46044682B979B90F2804D940F29D1113
:400B8000214801F0E1FC600100F1804000F50C101E4B18600020F8BD5DB366B316F01F0F2BD10F2C04D940F29D11174801F0CCFC640104F1804404F50C14144F3C607E60A8
:400BC000BD60F2080021284603F0BCFE00212046FFF77EFF3A4652F8040B0021FFF790FF68B900213868FFF773FF50B9F8BD084870470748F8BD0648F8BD0548F8BD0548C4
:400C0000F8BD0448F8BD00BFBC58081080A4020803018A0001018A002DE9F0411B4B1B68DC68236883422CD90D464609A0EB4610012303FA00F819B901F0F7FC074600E083
:400C40000027124B18680368002B01DA002300E00F4B83B9626852F8263018EA030F05D148EA030342F82630002400E0094C0021FFF72EFF00E0084C25B9384601F0D9FC57
:400C800000E0064C2046BDE8F08100BF80A4020801008A00020188000301880004018A002DE9F0411B4B1B68DC68236883422CD90D464609A0EB4610012303FA00F819B931
:400CC00001F0B3FC074600E00027124B18680368002B01DA002300E00F4B83B9626852F8263018EA030F05D023EA080342F82630002400E0094C0021FFF7EAFE00E0084C92
:400D000025B9384601F095FC00E0064C2046BDE8F08100BF80A4020801008A00020188000301880004018A000B4B1B68DB681A6882420CD94109A0EB4110012202FA00F08D
:400D40005B6853F82130184203D004487047044870470448704700BF80A402080101880004018A0000018800024B1B680BB9014B186070478CA402082DE9F843044688469D
:400D800091461E46089F072803D9B421244801F0DBFB244B1B682C2000FB04F01C18F5B21D50C6F307236360360CA6600F2D04D940F29D111C4801F0C7FB6D0105F18045A2
:400DC00005F50C15256165680F2D04D94FF4DC71154801F0B9FB154B03EB45156561A668330C1B0423B14FF4EB710F4801F0ACFB330C1B0423B140F2D7110B4801F0A4FB6F
:400E0000B3B243EA0646AE60C4F81C90C4F820800023A36117B1B7F90030A381BDE8F883FC5808108CA40208BC58081000102340F0B58FB0044618B950212C4801F084FB56
:400E4000A369072B03D95421284801F07DFBE36A1BB95621254801F077FBE368072B03D95721224801F070FB236A072B03D958211E4801F069FB236B1BB959211B4801F00C
:400E800063FB07AE04F114050FCD0FC62F6802AD26460FCE0FC533682B60079B1933ADF83030089B0D93A26AE16A0CAD00953B460A98FFF761FF00210091069B0A46059843
:400EC000FFF75AFF216B2846FFF7C4FDBDF93030002B08DB590903F01F03012202FA03F3034A42F821300FB0F0BD00BFFC58081000E100E0F8B507460E461D4614461AB934
:400F0000FC21224801F020FB072F03D9FD211F4801F01AFB072E03D9FE211C4801F014FB1B4B1B682C2202FB073002FB06367368012202FA03F31B04476802FA07F7026926
:400F4000EAB1B169E9B91268002A01DA002200E0104AC2B92288134323600369DC600123B361756204693B0C1B0423B140F28E21094801F0E9FABAB2A2600020F8BD07484B
:400F8000F8BD0748F8BD0648F8BD00BFFC5808108CA4020801008A00BC58081004028A0007028A0070B504460E461546072804D940F25F11084801F0C7FA084B1B682C2244
:400FC00002FB0434E369AB4204D9236A43F82560002070BD024870BDFC5808108CA402080A028A0070B582B000230193044620B94FF4D971264801F0A7FA236923B940F201
:40100000B311234801F0A0FA636923B94FF4DA711F4801F099FA236A23B940F2B5111C4801F092FA6369DD682A0C1CD012041A601B6820690369002B15DA01A9FFF77EFD23
:4010400060B9019803681E0CDBB2E269934206D2226A52F8233013B1984700E0002631462069FFF735FDADB275B16369ADB21D601B68636A1BB198470023636202E0A36AAB
:4010800003B198470023A36163691B6802B070BDFC58081010B50446042804D94FF48971094801F051FA04F1D003084A52F8230000F00700042806D1C03452F8240000F027
:4010C0001F0040F4807010BD3C590810000026405B4B1B782BB15B4BD3F81C35002B80F2A580B0F5C26F80F0A380B2F5C26F80F0A180B1F1807F80F09F8030B40124504B8E
:401100005C70FF2812D84F4CD4F8183523F00F0300F00F000343C4F81835D4F8143523F00F0343F00703C4F814352FE0B0F5A06F0AD2444CD4F8143523F00F0300F00F00C7
:401140000343C4F8143521E03E4DD5F8143523F00F04C0F303232343C5F81435B0F5C06F09D2D5F8143523F0F0040301DBB22343C5F814350AE0334DD5F8143523F47064E3
:40118000030203F470632343C5F81435FF2A12D82C48D0F8183523F0F0041301DBB22343C0F81835D0F8143523F4702343F4E023C0F8143533E0B2F5A06F0BD2214CD4F870
:4011C000143523F47020130403F470230343C4F8143524E01B4CD4F8143523F47020130A1B0403F470230343C4F81435B2F5C06F0AD2D4F8143523F47000130503F470030B
:401200000343C4F814350AE00E4CD4F8143523F07060130603F070630343C4F81435084B5960084BC3F81C15002007E00648704706487047054870470448704730BC7047F7
:4012400090A402080000264003004A0001004A002DE9304882B01D4BD3F8202522F07F420023CDE900230022194B5A70A8B9DDE90023134325D0164B5868DDE900456D08A5
:401280004FEA3404DDE90023E1FB00452046294603F0B2F9CDE9000113E0DDE90023A1FB024501FB03550A4B5A685008002314EB000B45F1000C5846614603F09DF9CDE914
:4012C0000001DDE9000102B0BDE830880000264090A40208A0F50043002BB8BF5B42042B30D910B41B4BD3F83C25C2F30902B0F5004F09D9A0F5FF437E3B1748A0FB031398
:40130000B2EB930011D50CE0C0F5004302331248A0FB031302EB930040F2FE33984202D803E0002001E040F2FF300A4CD4F83C3523F47F7323F00303C0F309010B43C4F81B
:401340003C3502E00022901A7047101A5DF8044B704700BF00002640CDCCCCCC00287DD00346002A7CD070B45068000280B29568AD0405F480252843D468240404F44034F1
:4013800004431069000600F0E0602043147F0CB1012400E0002420430C1DA4011851D06828B903EB81100024C0F808410CE0012805D1146803EB8110C0F8084104E003EB4B
:4013C00081100124C0F80841106938B9546903EB8110C0F80C419469C0F81041146803EB8110C0F81441906CB0F1FF3F17D0946A04F00F04166B360206F470663443956BB6
:401400002D0405F470252543146C2403A4B22C430001C0B2204303EB8114C4F82001506A00F00300D66A360106F030063043556B2D0205F440752843D46BA401E4B2044357
:40144000506C800000F00C00204303EB8113C3F82401126AC3F83821002003E0024870470148704770BC70470100B600002839D030B40446002A37D013681B0503F44013CC
:4014800043F04073081D800123509369B3F1FF3F13D01B01DBB2D5692D0405F470252B43D068000200F47060184353691B039BB2034304EB8110C0F8203193681B0103F0FF
:4014C000300310698001C0B2034343F4437343F0030304EB8114C4F824315368C4F83831002002E002487047014830BC704700BF0100B60010B4D0F8003303F00F03072B11
:4015000006D900230DE0D0F84043CC54013300E000239342F7D306E0D0F8404321F8134001339342F8D35DF8044B704710B51446D0F80833C3F308039A4200D31C46224653
:40154000FFF7D8FF204610BD10B4D0F8003203F00F03072B06D900230DE0CC5CC0F84042013300E000239342F7D306E031F81340C0F8404201339342F8D35DF8044B704784
:4015800010B51446036813F4006F01D0802200E04022D0F80832C3F30803D31AA34200D81C462246FFF7D0FF204610BDF8B507460D461446D0F8006206F00F060BE0224618
:4015C00029463846FFF7DCFF072E01D9430000E003461D44241A002CF1D1F8BD2DE9F84305460C46036813F4006F02D04FF0800801E04FF04008D5F8007207F00F07A26A48
:40160000012A19D9D4F82490E262561EB9F1000F00D026B940F22C51254800F095FF324649462846FFF7ACFFA36A1B1AA362072F00D9400048446062D5F80832C3F308038B
:40164000984533D0A36A012B30D10023A362072F02D8636A1E7801E0636A1E8800F0E5FFC5F840624FF40073C5F8803FD5F8803F00F0DFFFD5F8883F23F4007222F0010270
:4016800042F4007623F4EE6323F0030323B14FF48161084800F058FFC5F8886F236843F002032360236B0BB101209847BDE8F883C4590810045A08102DE9F04105460C467A
:4016C000036813F4006F01D0802600E040267608A769D4F81C8017B1B8F1000F04D14FF49061314800F030FF424639462846FFF71DFF236A03442362E3691B1AE36173BB62
:40170000A368FBB1E3689E4201D8013E00E05E1E2B6813F4006F01D0802300E040239E4204D340F25E21214800F00EFFD5F8043323F0FF03F6B21E43C5F804630123C5F89E
:40174000C83F02E00023C5F8C83F636823F001036360236B33B304209847BDE8F081A169D5F8002302F00F02072A00D940000844A0619E4216D95C1E2B6813F4006F01D0B0
:40178000802300E040239C4204D340F25E21074800F0DAFED5F8043323F0FF02E3B21343C5F80433BDE8F081C4590810045A0810002800F0A98170B50546002900F0A6811C
:4017C0009E4B984200F0A48116460C460B78022B03D942219A4800F0B7FE637B023BDBB2062B03D94321964800F0AEFEA37B3BB1022B05D0032B03D04421914800F0A4FE7D
:4018000094F82130012B03D945218D4800F09CFE94F82830012B03D94621894800F094FE2378012B06D86368083B082B94BF0023012307E0A37F2BB16368013B062B94BF68
:40184000002301231BB148217D4800F07DFEA368053B042B03D94921794800F075FE6369FF2B03D94A21764800F06EFEA369FF2B03D94B21724800F067FEA37C6BB123781E
:4018800033B9A368092B05D1A37B2BB1012304E0012302E0012300E000231BB14D21684800F052FE636B23F4366323F00D031BB14F21634800F048FEE36B23F4EE6323F047
:4018C00003031BB150215E4800F03EFE2378022B01D1A37F13B163685A1E00E00022237F13B14FF4803100E00021A068082802D84FF4006300E00023194302F00F030B434A
:4019000043F000732B60236B2A6812F4006F01D0802200E04022934203D36521484800F013FEA36B2A6812F4006F01D0802200E04022934203D36621414800F005FE636A25
:401940002A6812F4006F01D0802200E04022934203D367213A4800F0F7FD23781B0603F040732B64637F0BB1402200E00022A17C11B14FF4806300E000231343227C12B160
:401980004FF4807200E000221343627C12B14FF4007200E000221A43E36A013B1B0403F470231343627B013A02F007021343A27B120102F030021343AB64237B13B14FF496
:4019C000807200E00022E17B21B92378022B03D1012302E0012300E0002313B14FF4007300E000231A43A368013B03F00F031343C5F80033227DA3691B0403F47F031343EF
:401A0000C5F81033E26AD5F8003303F00F0303339A4201D3102A03D97D21094800F094FDE37F23B12378012B03D0002302E0002300E0012333B14FF4807204E00000694047
:401A4000485A08100022637B013B03F007031A43A37B1B0103F0300313436B64237B13B14FF4807200E00022A368013B03F00F0313432278012A02D14FF4803200E00022C7
:401A80001343C5F8003294F83030C5F8043394F8203013B14FF0007100E0002194F82120012A02D14FF0807300E000230B4394F82820012A02D14FF4803200E00022134343
:401AC00094F8242013432B6594F83830C5F80432636B23F4926323F002031B051B0DC5F8C83FE36B23F08C035B055B0DC5F8883F86B1002070603060B060F0603062F06214
:401B00003063054B736370BD04487047034870BD024870BD002070BDEFCDAB000160AA000B694A69934202D34869181A7047CA694869101A184470472DE9F04107460D469B
:401B4000036813F4006F02D04FF0800801E04FF040084FEA5808D7F80863C6F308062C6926E00134EB689C4200D100246B699C420FD12B6B0BB1082098476B699C4208D17D
:401B80000023C7F8C83F0CB1013C13E0EC68013C10E0D7F84023D7F8003303F00F03072B02D8AB681A5502E0AB6823F81420013E002ED6D12C61EC6829463846FFF7B0FF3C
:401BC000201A804519D908B1441E00E000243B6813F4006F01D0802300E040239C4204D340F25E21064800F0AFFCD7F8040320F0FF03E0B21843C7F80403BDE8F08100BF46
:401C0000045A081038B504460D46D0F8003E13F0080F35D0D0F8CC3F13F448730AD04A681A434A60C0F8C03FD0F8C03F0B6B0BB110209847D4F8CC3F13F4006F09D06B689F
:401C400043F400636B604FF40063C4F8C03FD4F8C03FD4F8CC3F13F0010F11D0EB6923B129462046FFF728FD05E0AB681BB129462046FFF761FF0123C4F8C03FD4F8C03F57
:401C8000D4F8003E13F0040F2ED0D4F88C3F13F4A0630AD02A681A432A60C4F8803FD4F8803F2B6B0BB120209847D4F88C3F13F0010F08D029462046FFF790FC0123C4F8E2
:401CC000803FD4F8803FD4F88C3F13F4007F0BD00022C4F8882F2B6823F001032B60EA622B6B0BB10220984738BD00BF00F17043B3F5801F01D2580A704700F16C43B3F566
:401D0000004F03D25B0A43F48030704700F16A40B0F5004F03D2400A40F4003070474FF0FF30704710B50446FFF7E0FFB0F1FF3F04D0C4F308041CB1002010BD002010BD8D
:401D4000012010BD1F4B98422DD00CD840282ED003D8E8B1102828D02FE0802829D0B0F5807F28D029E0184B984228D006D8B0F1204F0DD0154B984212D01EE0144B98429E
:401D80000AD00133984209D0023B984215D101E0002070470F4870470F4870470F4870474FF4A0007047074870470D4870470D4870470D487047034870470C4870474FF46F
:401DC000A400704706005200010000F0090000A0040000F0010052000200520003005200010050000200500005005200FF00520008B50C4B1B69002B12DB0B4B1868FFF7DF
:401E0000A1FF0122094BC3F88C24084BD3F80C34002BFAD1054BD3F88C34002BF5D108BD034808BD200023409CA40208000025400200500000B583B05523ADF8003000234F
:401E400001930C496846FEF705FEBDF90030002B08DB590903F01F03012202FA03F3064A42F82130022205490120FFF79BF803B05DF804FB7547020800E100E095480208E7
:401E800008B5FFF7B5FF08BD10B50446FFF74AFF10B3FEF72BFC114B4FF0E0521A605C6000209860D8600E4A13691169C1F307221B0E591C02FB01110A4B03FB01F10A4B04
:401EC0001B680A4AA2FB03239B09B1FBF3F101F6980103F001FA10BD054810BD9CA402080000214060F5900090420208D34D62100600520038B505460C46FFF713FF28B3EC
:401F000034B3FEF7F3FB134B4FF0C0621A604FF483725A609D60DC600F4A13691169C1F307221B0E591C02FB01110C4B03FB01F10B4B1B680B4AA2FB03239B09B1FBF3F12E
:401F400001F56171002003F0C7F938BD064838BD054838BD9CA4020800002140808D5B0090420208D34D621006005200002854D038B50546002952D00C460B6833F0FF03BA
:401F800003D08D21274800F0DFFA236933F0FF0303D08E21234800F0D7FAA3685B0D5B051BB18F211F4800F0CFFA636823F4FF7323F001031BB190211A4800F0C5FAE36955
:401FC00013F0604F03D09121164800F0BDFA236A13F0604F03D09221124800F0B5FA05F13F4303F54E03DB0903F1806303F544331B0122682A60E268AA622269EA626269D4
:402000002A63A2686A626268AA61A2696A63E2691A60226A5A60002038BD03487047024838BD00BF885A081001005A00024A936943F080739361704700F02540024A936965
:4020400023F080739361704700F02540084B4FF204015A5822F00F0242F002025A5003F570431A6822F00F0242F002021A60704700002140084B4FF204015A5822F00F0286
:4020800042F003025A5003F570431A6822F00F0242F003021A6070470000214004494FF204028B5823F4E04343F4C0438B5070470000214004494FF204028B5823F4E04397
:4020C00043F480438B5070470000214038B50446022806D0052804D040F2EA511E4800F033FA00F0A2FA05461C4B5B6903F007039C422CD0022C0DD1FFF798FFFFF7A6FFBE
:40210000164A536923F0070343F003035361FFF7C5FF0BE0114A536923F0070343F003035361C82000F004FAFFF7C4FF0B494B6923F0070204F0070313434B61052C06D1F8
:40214000C82000F0F5F9FFF795FFFFF777FF284600F06FFA38BD00BF085B08100000264010B50446012804D940F241610C4800F0EBF91CB90B4B5869C00F00E00020012C4E
:402180000DD1084B9B6913F0804F05D1054B9B69002B03DA012010BD012010BD002010BD085B08100000264038B504460D46072804D940F2A1610C4800F0C6F90B4B9B6915
:4021C00003F007039C420DD00848826922F0070104F007020A43826125B19C4202D9C82000F0A6F938BD00BF085B08100000264038B50446012804D940F2ED612A4800F0EB
:40220000A3F900F012FA05464FF61C73274AD35803F01F024FF0B05393F84037DBB29B1A18BF01239C423BD0A4B9FFF7FFFEFFF70DFF1E494FF61C728B5823F01F0343F0F6
:402240000B038B50FFF72AFF4FF0B05393F84037DBB212E015494FF61C728B5823F01F0343F00B038B50092000F062F9FFF722FF4FF0B05393F84137DBB20C484FF61C71AB
:40228000425822F01F0203F01F0313434350012C06D1092000F04CF9FFF7ECFEFFF7CEFE284600F0C6F938BD085B08100000264038B5044600F0B9F92CB1184B5B681F2B36
:4022C00003D9002302E0002300E001231D460BB3E368E3B12368E3B1104B99680B46002203E0A34204D01A465B69002BF9D100E000257DB111B9094B9C6000E054612261CE
:4023000000236361054A53680133536002E0002500E0002500F08DF9284638BDACA4020838B5044600F081F9144B5A680AB399680B4602E0A34204D05B69002BFAD100253B
:4023400000E00125B5B1A14206D14B695BB10B498B600021196106E019695C694C61596909B11B690B61013A044B5A6012B99A6000E0002500F05DF9284638BDACA4020846
:4023800070B584B005460E46042804D940F62401284800F0D9F8731EDBB2012B08D9042E06D0082E04D040F62501224800F0CCF8042E01D0012E1CD11F4B9C68002013E039
:4023C00023799D420FD1A3680BB133420BD1E3685A6802929B68039304A800F80C6D23689847154BDC6064690CB3144B9842E7D11DE0114BDC68022E01D104B1246900208F
:4024000011E023799D420DD1A3680BB1334209D1E3685A6802929B68039304A800F80C6D23689847246914B1044B9842E9D104B070BD00BF085B0810ACA40208FF00420090
:4024400070B50546012804D94FF497711D4800F07BF81D4B5B682BB101210020FFF790FF044600E000242CBB00F0DFF80646164B5B681BB104210020FFF782FF134A136938
:4024800023F004031361012D01D030BF07E020BF0D4B1B7803B120BF01220B4B1A70304600F0C7F8084B5B684BB108210020FFF767FF04E002210020FFF762FF044C204649
:4024C00070BD00BF085B0810ACA4020800ED00E0FF00420008B500F0A8F8074B5A6807490A4042F468525A605A68114059605B6800F09FF808BD00BF00002640FF00FC0F5E
:4025000010B5044605E0084B186800F085F8A4F50044B4F5004FF6D8044B186800FB04F000F07AF810BD00BFA8420208A442020808B5034B1B7800FB03F000F06DF808BD8E
:40254000A042020801BEFEE738B50D46044C18220146204602F060FAA5610020FFF7F2FF804B02080122014B9A60704700002540FEE700BF08B50268254BDA6142681A6205
:4025800082685A62C2689A620269DA6242691A6382695A63C2699A631E4A916AD963D16A1964516A5964516B9964926BDA64F1EE103A13F0900F27D0026A154B1A65426A34
:4025C0005A65826A9A65C26ADA65026B1A66426B5A66826B9A66C26BDA66026C1A67426C5A67826C9A67C26CDA67026DC3F88020426DC3F88420826DC3F88820C26DC3F842
:402600008C20026EC3F89020FFF7B2FF08BD00BF804B020800ED00E00230800803D001300238FCD100BF00BF7047EFF3108072B6704780F31088704738B50378012B02D0D3
:40264000082B42D047E0284B1B78012B45D00320FEF76AFB254B984241D001F073FA01283FD0022004F0A6FC0546FFF7DEFF204B186004F0ABFC0446062815D0022D09D17F
:40268000022006F013FB032C01D0052C0ED178B1184C12E0012006F009FB022C0AD058B9FFF7CEFE134C08E0002406E0114C04E0002402E00F4C00E00E4C0E4B9C4211D129
:4026C0000B4B1868FFF7B5FF0CE0094B1868FFF7B0FF002406E0074C04E0064C02E0054C00E0044C204638BD2FB4020801018800DCA40208FF00420008B50248FFF710FE57
:4027000008BD00BF1044020898B110B50A4A5060C36A0BB1094A13600024094B1C70094B1C70094B1C60094B1C7000F003FB204610BD0748704700BFDCA4020828B402080C
:4027400040B4020844B4020848B4020845B402080100160010B590B02F4B0CAC186859689A68DB680FC42822002102A802F0EAF82A4B02930CAB049345F28863ADF814305D
:4027800004238DF816301B22ADF82020ADF8222003228DF824208DF82530FB238DF8263010238DF827308DF829306A23ADF82A3001238DF82E301A48FFF77AFD04F0E3FB3C
:4027C00004F0DAFB08A804F069FC034600BB154B039302A804F00CFC0346B0B90122124B1A700023114A1370114A1370114B5B681A6A00929B6ADB88ADF804300823ADF886
:40280000063068461EF038F9034600210A4A1160184610B010BD00BF485B0810B532081010440208144C02082FB4020830B4020831B40208DCA4020848B40208014B986775
:40284000704700BF00F03D4010B5294B1B68002B36D0284B9B6E13F0200F33D006F03EFA254B9B6813F0040F04D0234B1B6D13F0020F29D1204B9B6813F0010F04D01E4B8A
:402880001B6A13F0020F21D11B4B9B6813F0020F09D0194B9B6B13F0080F19D1164B9B6B13F0100F16D1144B9B6813F0080F13D0114BD3F8A83013F0100F0FD100240EE0E7
:4028C00000240CE000240AE0012408E0012406E0012404E0012402E0002400E001240CF0DBFF034B1B680BB104B1984710BD00BF24B4020800F03D4000103C4048B108B555
:40290000B1F5FD7F07D20A46044902F010F8002008BD03487047024808BD00BF07080016010016002DE9F04FADF5057DB1F1805F03D38C187E4B9C4210D9B1F1A05F03D399
:402940008C187C4B9C4209D97B4B994240F2D9808C1803F201239C4200F2D68017460E468046764B5B6913F0804F0AD0734B5C6904F00704022C07D10520FFF7A7FB02949A
:4029800003E00523029300E002946C4B1B6813F4000F13D14FF61C73684AD35803F01F034FF0B05292F84027D2B2D31A18BF012303932BB90120FFF71BFC01E00123039326
:4029C00006F170464FEA562B4FEA4B2400210320FEF722F90028F9D1054681466DE0B44213D3BD4211D218F805200DF1100E0EF8032041B904F180521278D2B218F805E027
:402A0000724500D00121013506E004F1805212780DF1100E0EF803200134013301E000210B46B3F5007FDAD3002944D04FF0C80A0BF500235B0201931846FFF725FA81460F
:402A40000AF1FF3A0120FFF773FD09F4A403B3F5A40F02D1BAF1000FEAD1394B994505D1FFF70EFA8146374B9842F9D0B9F1000F1ED14FF0C80A04A90198FFF73BFA814641
:402A80000AF1FF3A0120FFF753FD09F4A403B3F5A40F02D1BAF1000FEDD1294B994509D1FFF7EEF98146274B9842F9D0012002E0012000E001200BF1010BB9F1000F01D194
:402AC000BD42ACD308B1FFF74DFD00210320FEF7E7F80028F9D1194B5B6913F0804F05D0029B022B02D10220FFF7F0FA134B1B6813F4000F0AD1039B43B90020FFF778FBF2
:402B000004E0DFF8509001E0DFF848900E4B994509D00433994506D0B9F1000F01D1002002E00A4800E00A480DF5057DBDE8F08F0000101000800014FF0700160000264080
:402B400001005000020050000200520013001600010016000600520040B108B5B1F5FD7F06D20A460349FFF7DDFE08BD02487047014808BD070800160100160008B5FFF7EE
:402B8000D1FE08BD70B5C0B006460C4615464FF480720849684601F0CAFE05E016F8012B6A401DF80250013C002CF7D1284640B070BD00BF585B08100020704700207047E2
:402BC00008B5FFF7B5FC08BD084B1B685B6BB3F90030002B08DB590903F01F03012202FA03F3034A42F82130704700BFE0A4020800E100E00A4B1B685B6BB3F90030002B58
:402C00000DDB5A0903F01F03012101FA03F32032044941F82230BFF34F8FBFF36F8F7047E0A4020800E100E0024BD3F8000500F00300704700002640024BD3F81C05C00F7C
:402C4000704700BF0000264008B5FEF701FB08BD08B5FEF73DFA08BD08B5FEF73BFB08BD10B500F091FF0220FFF7E8FD0A4C23680A49586BFDF7EEFE23685B6BB3F9003064
:402C8000002B08DB590903F01F03012202FA03F3034A42F8213010BDE0A402084928081000E100E00420704708B5FFF7BEFC08BD08B5FFF7BEFC08BD08B5FFF7C1FB08BD8A
:402CC00008B50021FFF770FA08BD00BF704700BF704700BF002070470048704711001600004870471100160000487047110016000048704711001600004870471100160091
:402D0000004870471100160000487047110016000048704711001600004870471100160000487047110016000048704711001600704700BF08B5024800F08AFD08BD00BF37
:402D400008440208F8B5022872D8002972D10022134606E03B4CE45C012C01D90132D2B20133002BF6D0012A0CD1374B1B681C6801EB8102930023445B681B79023BDBB24A
:402D8000012B59D8314B1B78002B57D1304B1970E0B92D4F3C68236801EB8105AA009D186668C1EBC1014B001E44B18829822168114449686468E45A0C8039680C682244CE
:402DC000526849680B445B8853801EE001281CD11D4F3C68236801EB8105AA009D186668C1EBC1014B001E44B1892982216811444D68616819440989298039680C682244A6
:402E0000526849680B445B895380124B18700E4B1B6818680E4B1B7803EB83039A00104419F05EFB034650B90121084A117006E0094B04E0084B02E0084B00E0084B1846B2
:402E4000F8BD00BF30B40208E0A4020831B402082EB4020845B402080100160002001600FF00160070B439B9144B1B681B689968CE7F00231D460EE0104B1B681B68D96861
:402E8000CE7FF6E7CA5C52B10133CC5C1B2C01D0134400E00125B34201D2002DF2D05DB101338279CA54002204E0D4180134855C0D550132052AF8D970BC7047E0A40208CE
:402EC00070B504461DF0F2FD0546D0B90E4B1968086A228902EB82029300143B03445A6812F0007F0DD0E67B1B695A68CB69D21A06EBC606B318A28821680448184401F047
:402F000016FD284670BD00BFE0A4020834B4020830B587B002891A4B1B685B699B889A4229D1044601AB07C883E807000022ADF81020A289ADF8122040228DF814201846AF
:402F4000FFF7BEFF054680B923681B7803F002039BB22BB10B4B1B6821460B48984704E0084B1B68214609489847094A137803F0FE03137000E00025284607B030BD00BFED
:402F8000E0A4020828B40208050001000600010040B402084288531E9BB21A2B1AD84178D1B910B40F4B1868046A02EB82029300143B23445A6812F0007F0FD01B695A6862
:402FC000C369D31A01EBC1011944074B5B5A1380002004E0012070470120704700205DF8044B7047E0A4020834B40208C8B1104B1B68196A038903EB83039B00143B0B4451
:403000005B6813F0007F0ED100B587B001AB00210491059107C883E807001846FFF750FF03E00E2070470120704707B05DF804FBE0A40208A1B1A8B110B586B0034601ACCF
:4030400000220492059207C984E807001B88ADF8123040238DF814302046FFF731FF03E00E2070470E20704706B010BDF0B583B000283ED006460388ADF804309DF80530C4
:4030800013B92348C35C00E00023012B34D91B2935D87378D3B100251E4834E0601800EB80008300143B7344586810F0007F0BD070781B695B68FD695B1B00EBC000164D80
:4030C0002844C35C13800125013401E000242546124B1F68D7F820E001EB81008300143B73441B895B1A9C420CD8002DD6D0094809E00025074806E00025094803E000257E
:40310000044800E0034805B1002003B0F0BD00BF30B402080100160034B40208E0A402080700160000B583B00DF10602FFF79EFF20B9BDF8060000F0010000E0002003B0C8
:403140005DF804FB30B3034631B330B587B00288ADF804209DF8052012B91448825C00E00022012A1AD91D460C460846FFF73EFFB0B921892846FFF7D5FF98B102AB94E8AA
:40318000070083E807002A88ADF8142018461CF0CBFD08E00648704705487047054802E0054800E0054807B030BD00BF30B402080100160007001600020016001700160075
:4031C0000E4B1B7813F0010F17D100B583B071B18389ADF800300389ADF8023012238DF804308DF8051068461CF07EFD02E0C0681CF0A8FD03B05DF804FB704740B4020866
:4032000010B4044688B10023194606E0104A52F82320944200D1012101330D4A1279934206D20029F2D0002003E00021094800E0002050B949B9064B1B792BB9044A42F8B0
:4032400023400133137100E003485DF8044B70474CB40208010016000300160070B506460D460020044606E0084B53F824302946304698470134054B1B799C4204D2044B8D
:403280001B7813F0010FEFD170BD00BF4CB4020840B4020883792BB100207047C25C32B9013300E00023052BF8D9002070470120704700BF70B58AB004460D46B74A1378CE
:4032C00043F00103137044F21003984200F0AC8136D842F20403984200F0D08014D841F20103984200F0F48003D8B0F5805F60D07FE241F20203984200F0ED8041F2030378
:40330000984200F0218174E244F20603984200F0D3810AD843F21203984200F0A78044F20403984200F0238163E244F20803984200F0BE8144F20A03984200F0728158E2DD
:4033400045F20E03984200F0418216D845F20203984200F00A8205D845F20103984200F0E68146E245F20303984200F0178245F20C03984200F01C823BE245F214039842F4
:4033800000F02D820AD845F20F03984200F0218245F21003984200F01F822AE245F21703984200F01F8246F20103984200F0BC811FE27B4B1E683046FFF76CFF60B130466B
:4033C0001AF0EEF8764E00213068FFF74BFD01213068FFF747FD37E0724B1868836A1B791BB34FF0B05696F8041601F03F0396F8052602F03F0243EA821196F8033603F005
:403400001F0341EA033296F8003603F07F0342EA4343026B1370634A1168096BC3F3072048701268126B1B0C93705E4E3368186B1AF0B6F833680021186BFFF713FD33687D
:403440000121186BFFF70EFD564B1B68986A02301AF0BCFC544A04AB1068516803C304A81AF0C2F80222514B1A70C2E100234F4A13704F4A1370FFF73FF9BAE14D4B1B68AC
:4034800013F0010F40F0B5810023ADF810308DF81230444E33689B6A93F900308DF8103004A81AF0BBF833689B6A93F901308DF8103001238DF81130FF238DF8123004A807
:4034C0001AF0ACF83B4A136843F00103136090E1FFF7C4FE8DE14978374B1B88ADF81030002319E0354A32F81320ADF808209DF8092012B93248825C00E00022012A0AD95C
:403500002E4A12F81320914205D12C4A32F81330ADF8103002E00133002BE3D09DF81130FF2B05D104D14FF472712648FFF70CF8BDF81030ADF81C30ADF81830C3F3072385
:403540002978214AD15454E10B78002B40F051810B7A33B91D4B0022DA809A801C4A1A604B600E4A137803F0FE03137041E1CB78002B40F03E8149790F4B1B88ADF81030BE
:40358000002336E00D4A32F81320ADF80C209DF80D20FAB90A48825C1DE000BF40B4020828440208E0A40208585C08102FB4020831B4020848B40208605C08102CB402087E
:4035C00030B40208645C081044B4020800A502089CA202080022012A0AD98E4A12F81320914205D18B4A32F81330ADF8103002E00133002BC6D09DF81130FF2B05D104D175
:403600004FF472718448FEF79FFFBDF81030ADF82030ADF81030C3F3072301217F4AD154E7E0FFF71BFEE4E00B7E012B02D100227B4B1A70E97E7B4B1B88ADF80C300023DE
:4036400019E0744A32F81320ADF810209DF8112012B97548825C00E00022012A0AD96D4A12F81320914205D16A4A32F81330ADF80C3002E00133002BE3D09DF80D30FF2B96
:4036800005D104D14FF472716348FEF75DFFBDF80C30ADF82430ADF80C30C3F30723FF2B02D0297E614AD1540222614B1A70A0E002225F4B1A709CE0FFF7D0FD5D4B1B7873
:4036C00013F0010F00F09580554B1B78012B03D10222534B1A708CE0032B03D10022504B1A7086E0022B40F0848000224C4B1A70514B1B685B68514A1178C1EBC10203EB11
:4037000042039A79002A74D09B88002B71D04C4B1B78002B6DD10120FFF714FB002868D101223F4B1A7064E0FFF798FD61E00B88ADF800309DF801301BB902213A4AD15405
:4037400005E023B94FF461713348FEF7FDFE6A782988304B23F812106B780021394AD15429462046FFF77AFD43E00B88ADF804309DF805301BB900212B4AD15405E023B926
:403780004FF461712448FEF7DFFE6B780021234AD15429462046FFF761FD2AE00B88ADF810301723ADF8123004A81CF0A9FA20E00846FFF7ADFB014620B929462046FFF722
:4037C0004DFD01462846FFF7FBFC12E0FFF746FD0FE0FFF743FD0CE0FFF740FD09E0FFF73DFD06E00846FFF7D5FB29462046FFF735FD104B1B7813F0110F09D00D4A137892
:4038000003F0FE031370104B1B682946204698470AB070BD2CB40208645C0810F8A4020831B40208605C081030B40208FCA402082FB4020840B40208E0A402082EB4020870
:4038400045B4020844B4020828B402080020704730B108B5034A10600348FFF7D1FC08BD024870470CA502084D3808100100160038B50D4640F4004000040E4BD8614FF45B
:403880007A7403E0013C0120FEF752FE094B1B6C13F0010F01D1002CF4D144B1054B1A6C42F001021A64DB6A2B80002038BD024838BD00BF00003C400400160010B50F4BAD
:4038C00003EA004001430E4AD1614FF47A7403E0013C0120FEF72CFE094B1B6C13F0010F01D1002CF4D134B1054A136C43F001031364002010BD034810BD00BF0000FF7FE8
:4039000000003C400400160070B582B005460A244FF4C05141F60260FFF7D0FF034630B90DF1060141F60260FFF7A2FF03460CB1013C00E0714B23B9BDF80620B2F5C05FAC
:40394000E6D13BBB0DF1060141F60360FFF790FF0346F8B9BDF8062002F4806292B2CAB90A244FF4806141F60360FFF7A7FF034630B90DF1060141F60360FFF779FF0346F2
:403980000CB1013C00E05D4B23B9BDF80620B2F5806FE6D133B90DF1060141F60960FFF767FF0346002B43D1BDF8063023F03F039BB2AA78012A12D1E978012904D88EB2A8
:4039C000C6F1020294B201E00024022643F07003ADF806304A4BCB404A4A136012E0E97821B98EB2C6F1010294B201E00024012623F0400343F01003ADF80630424BCB40C9
:403A0000404A1360BDF80610314389B2ADF8061041F60960FFF752FF0346EA78961B06F00306A20092B23243ADF8062037494A664FF0B052527812F0FF0F04D04FF0B0528C
:403A40005278D2B200E02122212A53D0304A128892B2002A4ED033B90DF1060141F60760FFF706FF034643BBBDF8063023F060039BB2ADF8063026490A88C2F3811243EAF7
:403A8000421323F4F0639AB2ADF806200B889BB2DB0103F4F063134323F4C0539BB2ADF806300988C1F3012143EAC121ADF8061041F60760FFF702FF034633B90DF1060182
:403AC00041F60660FFF7D4FE03469BB9BDF8061021F0C0018BB2ADF806300D4A1188C1F3011143EA8111ADF8061041F60660FFF7E5FE0346184602B070BD00BF040016000A
:403B00000048E8018C4202080024F40000F03D401618001638B50D4641F2010141EA400141F60860FFF7CAFE044630B946F6370141F60F60FFF7C2FE04466801FEF7F8FCD6
:403B4000204638BD10B5002405E02046FDF7A2FA032804D00134042CF7D9002010BD012010BD00BF074BD3F8003503F00303012B03D0032B03D1012070470120704700203C
:403B8000704700BF0000264030B59DB024252A46002113A800F0D6FE4FF066331693154C18944FF01C331A931B932A4600210AA800F0C8FE104B0D930F94104B119341F65A
:403BC0001A2312932A46002101A800F0BBFE0C4B049306940B4B089313A90B48FEF7C6F90AA90A48FEF7C2F901A90948FEF7BEF91DB030BD0000FFFF66E6EE661C1A1A1AA6
:403C000066E666661A1A001C000132408001324000023240024A136F43F010031367704700F03D4070B5002800F0D08006466B4B5B6813F4003F01D0FEF74CFC684BD3F86C
:403C4000A03013F0010F06D0654BD3F8B43013F0010F40F0BD80FFF797FF624901F5F833614AC3F8A420327842F48022C3F8A8204FF00112C3F8AC20D1F8003113F0010F3F
:403C800040F0A880564B1B6F13F0080F0AD1574B1B68574A934207D9564AA2FB03231B0D013B02E0012300E000234E4A12681BB1514941EA433300E0504B1343494A136051
:403CC000464B5B6913F0804F0ED001210320FEF76BFA424B5B6913F0804F0CD03F4A936943F08043936106E03D4AD2F8C43043F00303C2F8C4303A4CD4F8A05045F44033B2
:403D000043F03003C4F8A0304020FEF711FCD4F8B03013F0010F0BD10123C4F8B0304020FEF706FC0323C4F8B0304020FEF700FC25F4803525F0100545F4003545F02005AA
:403D4000274BC3F8A0504FF4FA6403E0013C0120FEF7EEFB44F21003294AD35813F0100F01D1002CF2D10CB1002400E0254C0CBB1B4A936E43F0080393660120FEF7F0F907
:403D800008B945F0080525F4802343F00103144AC2F8A0301C4D03E0013D0120FEF7C8FB0F4BD3F8B43013F0010F01D1002DF3D105B9144C1CB93046FFF7A6FD044654B98A
:403DC00031787078FFF7A6FE044604E00F4C02E00F4C00E00F4C204670BD00BF0000264000F03D4000003C40060000019442020800093D0083DE1B43041A0080040A0080DE
